{
  "_format": "hh-sol-artifact-1",
  "contractName": "PSLTicket",
  "sourceName": "contracts/PSLTicket.sol",
  "abi": [
    {
      "inputs": [],
      "stateMutability": "nonpayable",
      "type": "constructor"
    },
    {
      "inputs": [],
      "name": "AccessControlBadConfirmation",
      "type": "error"
    },
    {
      "inputs": [
        {
          "internalType": "address",
          "name": "account",
          "type": "address"
        },
        {
          "internalType": "bytes32",
          "name": "neededRole",
          "type": "bytes32"
        }
      ],
      "name": "AccessControlUnauthorizedAccount",
      "type": "error"
    },
    {
      "inputs": [
        {
          "internalType": "address",
          "name": "sender",
          "type": "address"
        },
        {
          "internalType": "uint256",
          "name": "tokenId",
          "type": "uint256"
        },
        {
          "internalType": "address",
          "name": "owner",
          "type": "address"
        }
      ],
      "name": "ERC721IncorrectOwner",
      "type": "error"
    },
    {
      "inputs": [
        {
          "internalType": "address",
          "name": "operator",
          "type": "address"
        },
        {
          "internalType": "uint256",
          "name": "tokenId",
          "type": "uint256"
        }
      ],
      "name": "ERC721InsufficientApproval",
      "type": "error"
    },
    {
      "inputs": [
        {
          "internalType": "address",
          "name": "approver",
          "type": "address"
        }
      ],
      "name": "ERC721InvalidApprover",
      "type": "error"
    },
    {
      "inputs": [
        {
          "internalType": "address",
          "name": "operator",
          "type": "address"
        }
      ],
      "name": "ERC721InvalidOperator",
      "type": "error"
    },
    {
      "inputs": [
        {
          "internalType": "address",
          "name": "owner",
          "type": "address"
        }
      ],
      "name": "ERC721InvalidOwner",
      "type": "error"
    },
    {
      "inputs": [
        {
          "internalType": "address",
          "name": "receiver",
          "type": "address"
        }
      ],
      "name": "ERC721InvalidReceiver",
      "type": "error"
    },
    {
      "inputs": [
        {
          "internalType": "address",
          "name": "sender",
          "type": "address"
        }
      ],
      "name": "ERC721InvalidSender",
      "type": "error"
    },
    {
      "inputs": [
        {
          "internalType": "uint256",
          "name": "tokenId",
          "type": "uint256"
        }
      ],
      "name": "ERC721NonexistentToken",
      "type": "error"
    },
    {
      "inputs": [
        {
          "internalType": "address",
          "name": "owner",
          "type": "address"
        }
      ],
      "name": "OwnableInvalidOwner",
      "type": "error"
    },
    {
      "inputs": [
        {
          "internalType": "address",
          "name": "account",
          "type": "address"
        }
      ],
      "name": "OwnableUnauthorizedAccount",
      "type": "error"
    },
    {
      "anonymous": false,
      "inputs": [
        {
          "indexed": true,
          "internalType": "address",
          "name": "owner",
          "type": "address"
        },
        {
          "indexed": true,
          "internalType": "address",
          "name": "approved",
          "type": "address"
        },
        {
          "indexed": true,
          "internalType": "uint256",
          "name": "tokenId",
          "type": "uint256"
        }
      ],
      "name": "Approval",
      "type": "event"
    },
    {
      "anonymous": false,
      "inputs": [
        {
          "indexed": true,
          "internalType": "address",
          "name": "owner",
          "type": "address"
        },
        {
          "indexed": true,
          "internalType": "address",
          "name": "operator",
          "type": "address"
        },
        {
          "indexed": false,
          "internalType": "bool",
          "name": "approved",
          "type": "bool"
        }
      ],
      "name": "ApprovalForAll",
      "type": "event"
    },
    {
      "anonymous": false,
      "inputs": [
        {
          "indexed": true,
          "internalType": "address",
          "name": "previousOwner",
          "type": "address"
        },
        {
          "indexed": true,
          "internalType": "address",
          "name": "newOwner",
          "type": "address"
        }
      ],
      "name": "OwnershipTransferred",
      "type": "event"
    },
    {
      "anonymous": false,
      "inputs": [
        {
          "indexed": true,
          "internalType": "bytes32",
          "name": "role",
          "type": "bytes32"
        },
        {
          "indexed": true,
          "internalType": "bytes32",
          "name": "previousAdminRole",
          "type": "bytes32"
        },
        {
          "indexed": true,
          "internalType": "bytes32",
          "name": "newAdminRole",
          "type": "bytes32"
        }
      ],
      "name": "RoleAdminChanged",
      "type": "event"
    },
    {
      "anonymous": false,
      "inputs": [
        {
          "indexed": true,
          "internalType": "bytes32",
          "name": "role",
          "type": "bytes32"
        },
        {
          "indexed": true,
          "internalType": "address",
          "name": "account",
          "type": "address"
        },
        {
          "indexed": true,
          "internalType": "address",
          "name": "sender",
          "type": "address"
        }
      ],
      "name": "RoleGranted",
      "type": "event"
    },
    {
      "anonymous": false,
      "inputs": [
        {
          "indexed": true,
          "internalType": "bytes32",
          "name": "role",
          "type": "bytes32"
        },
        {
          "indexed": true,
          "internalType": "address",
          "name": "account",
          "type": "address"
        },
        {
          "indexed": true,
          "internalType": "address",
          "name": "sender",
          "type": "address"
        }
      ],
      "name": "RoleRevoked",
      "type": "event"
    },
    {
      "anonymous": false,
      "inputs": [
        {
          "indexed": true,
          "internalType": "uint256",
          "name": "tokenId",
          "type": "uint256"
        }
      ],
      "name": "TicketBurned",
      "type": "event"
    },
    {
      "anonymous": false,
      "inputs": [
        {
          "indexed": true,
          "internalType": "address",
          "name": "buyer",
          "type": "address"
        },
        {
          "indexed": true,
          "internalType": "uint256",
          "name": "tokenId",
          "type": "uint256"
        },
        {
          "indexed": false,
          "internalType": "uint256",
          "name": "matchId",
          "type": "uint256"
        },
        {
          "indexed": false,
          "internalType": "enum PSLTicket.TicketTier",
          "name": "tier",
          "type": "uint8"
        },
        {
          "indexed": false,
          "internalType": "uint256",
          "name": "price",
          "type": "uint256"
        }
      ],
      "name": "TicketMinted",
      "type": "event"
    },
    {
      "anonymous": false,
      "inputs": [
        {
          "indexed": true,
          "internalType": "address",
          "name": "from",
          "type": "address"
        },
        {
          "indexed": true,
          "internalType": "address",
          "name": "to",
          "type": "address"
        },
        {
          "indexed": true,
          "internalType": "uint256",
          "name": "tokenId",
          "type": "uint256"
        }
      ],
      "name": "Transfer",
      "type": "event"
    },
    {
      "inputs": [],
      "name": "DEFAULT_ADMIN_ROLE",
      "outputs": [
        {
          "internalType": "bytes32",
          "name": "",
          "type": "bytes32"
        }
      ],
      "stateMutability": "view",
      "type": "function"
    },
    {
      "inputs": [],
      "name": "GENERAL_CAPACITY",
      "outputs": [
        {
          "internalType": "uint256",
          "name": "",
          "type": "uint256"
        }
      ],
      "stateMutability": "view",
      "type": "function"
    },
    {
      "inputs": [],
      "name": "GENERAL_PRICE",
      "outputs": [
        {
          "internalType": "uint256",
          "name": "",
          "type": "uint256"
        }
      ],
      "stateMutability": "view",
      "type": "function"
    },
    {
      "inputs": [],
      "name": "HOSPITALITY_CAPACITY",
      "outputs": [
        {
          "internalType": "uint256",
          "name": "",
          "type": "uint256"
        }
      ],
      "stateMutability": "view",
      "type": "function"
    },
    {
      "inputs": [],
      "name": "HOSPITALITY_PRICE",
      "outputs": [
        {
          "internalType": "uint256",
          "name": "",
          "type": "uint256"
        }
      ],
      "stateMutability": "view",
      "type": "function"
    },
    {
      "inputs": [],
      "name": "MINTER_ROLE",
      "outputs": [
        {
          "internalType": "bytes32",
          "name": "",
          "type": "bytes32"
        }
      ],
      "stateMutability": "view",
      "type": "function"
    },
    {
      "inputs": [],
      "name": "PREMIUM_CAPACITY",
      "outputs": [
        {
          "internalType": "uint256",
          "name": "",
          "type": "uint256"
        }
      ],
      "stateMutability": "view",
      "type": "function"
    },
    {
      "inputs": [],
      "name": "PREMIUM_PRICE",
      "outputs": [
        {
          "internalType": "uint256",
          "name": "",
          "type": "uint256"
        }
      ],
      "stateMutability": "view",
      "type": "function"
    },
    {
      "inputs": [],
      "name": "VIP_CAPACITY",
      "outputs": [
        {
          "internalType": "uint256",
          "name": "",
          "type": "uint256"
        }
      ],
      "stateMutability": "view",
      "type": "function"
    },
    {
      "inputs": [],
      "name": "VIP_PRICE",
      "outputs": [
        {
          "internalType": "uint256",
          "name": "",
          "type": "uint256"
        }
      ],
      "stateMutability": "view",
      "type": "function"
    },
    {
      "inputs": [
        {
          "internalType": "address",
          "name": "to",
          "type": "address"
        },
        {
          "internalType": "uint256",
          "name": "tokenId",
          "type": "uint256"
        }
      ],
      "name": "approve",
      "outputs": [],
      "stateMutability": "nonpayable",
      "type": "function"
    },
    {
      "inputs": [
        {
          "internalType": "address",
          "name": "owner",
          "type": "address"
        }
      ],
      "name": "balanceOf",
      "outputs": [
        {
          "internalType": "uint256",
          "name": "",
          "type": "uint256"
        }
      ],
      "stateMutability": "view",
      "type": "function"
    },
    {
      "inputs": [
        {
          "internalType": "uint256",
          "name": "tokenId",
          "type": "uint256"
        }
      ],
      "name": "burnTicket",
      "outputs": [],
      "stateMutability": "nonpayable",
      "type": "function"
    },
    {
      "inputs": [
        {
          "internalType": "uint256",
          "name": "matchId",
          "type": "uint256"
        },
        {
          "internalType": "enum PSLTicket.TicketTier",
          "name": "tier",
          "type": "uint8"
        }
      ],
      "name": "buyTicket",
      "outputs": [],
      "stateMutability": "payable",
      "type": "function"
    },
    {
      "inputs": [
        {
          "internalType": "uint256",
          "name": "tokenId",
          "type": "uint256"
        }
      ],
      "name": "getApproved",
      "outputs": [
        {
          "internalType": "address",
          "name": "",
          "type": "address"
        }
      ],
      "stateMutability": "view",
      "type": "function"
    },
    {
      "inputs": [
        {
          "internalType": "uint256",
          "name": "matchId",
          "type": "uint256"
        },
        {
          "internalType": "enum PSLTicket.TicketTier",
          "name": "tier",
          "type": "uint8"
        }
      ],
      "name": "getAvailableCapacity",
      "outputs": [
        {
          "internalType": "uint256",
          "name": "",
          "type": "uint256"
        }
      ],
      "stateMutability": "view",
      "type": "function"
    },
    {
      "inputs": [
        {
          "internalType": "bytes32",
          "name": "role",
          "type": "bytes32"
        }
      ],
      "name": "getRoleAdmin",
      "outputs": [
        {
          "internalType": "bytes32",
          "name": "",
          "type": "bytes32"
        }
      ],
      "stateMutability": "view",
      "type": "function"
    },
    {
      "inputs": [
        {
          "internalType": "uint256",
          "name": "tokenId",
          "type": "uint256"
        }
      ],
      "name": "getTicket",
      "outputs": [
        {
          "components": [
            {
              "internalType": "uint256",
              "name": "ticketId",
              "type": "uint256"
            },
            {
              "internalType": "uint256",
              "name": "matchId",
              "type": "uint256"
            },
            {
              "internalType": "enum PSLTicket.TicketTier",
              "name": "tier",
              "type": "uint8"
            },
            {
              "internalType": "uint256",
              "name": "purchasePrice",
              "type": "uint256"
            },
            {
              "internalType": "uint256",
              "name": "mintedAt",
              "type": "uint256"
            }
          ],
          "internalType": "struct PSLTicket.Ticket",
          "name": "",
          "type": "tuple"
        }
      ],
      "stateMutability": "view",
      "type": "function"
    },
    {
      "inputs": [
        {
          "internalType": "enum PSLTicket.TicketTier",
          "name": "tier",
          "type": "uint8"
        }
      ],
      "name": "getTierPrice",
      "outputs": [
        {
          "internalType": "uint256",
          "name": "",
          "type": "uint256"
        }
      ],
      "stateMutability": "pure",
      "type": "function"
    },
    {
      "inputs": [
        {
          "internalType": "bytes32",
          "name": "role",
          "type": "bytes32"
        },
        {
          "internalType": "address",
          "name": "account",
          "type": "address"
        }
      ],
      "name": "grantRole",
      "outputs": [],
      "stateMutability": "nonpayable",
      "type": "function"
    },
    {
      "inputs": [
        {
          "internalType": "bytes32",
          "name": "role",
          "type": "bytes32"
        },
        {
          "internalType": "address",
          "name": "account",
          "type": "address"
        }
      ],
      "name": "hasRole",
      "outputs": [
        {
          "internalType": "bool",
          "name": "",
          "type": "bool"
        }
      ],
      "stateMutability": "view",
      "type": "function"
    },
    {
      "inputs": [
        {
          "internalType": "uint256",
          "name": "matchId",
          "type": "uint256"
        }
      ],
      "name": "initializeMatch",
      "outputs": [],
      "stateMutability": "nonpayable",
      "type": "function"
    },
    {
      "inputs": [
        {
          "internalType": "address",
          "name": "owner",
          "type": "address"
        },
        {
          "internalType": "address",
          "name": "operator",
          "type": "address"
        }
      ],
      "name": "isApprovedForAll",
      "outputs": [
        {
          "internalType": "bool",
          "name": "",
          "type": "bool"
        }
      ],
      "stateMutability": "view",
      "type": "function"
    },
    {
      "inputs": [],
      "name": "name",
      "outputs": [
        {
          "internalType": "string",
          "name": "",
          "type": "string"
        }
      ],
      "stateMutability": "view",
      "type": "function"
    },
    {
      "inputs": [],
      "name": "owner",
      "outputs": [
        {
          "internalType": "address",
          "name": "",
          "type": "address"
        }
      ],
      "stateMutability": "view",
      "type": "function"
    },
    {
      "inputs": [
        {
          "internalType": "uint256",
          "name": "tokenId",
          "type": "uint256"
        }
      ],
      "name": "ownerOf",
      "outputs": [
        {
          "internalType": "address",
          "name": "",
          "type": "address"
        }
      ],
      "stateMutability": "view",
      "type": "function"
    },
    {
      "inputs": [],
      "name": "renounceOwnership",
      "outputs": [],
      "stateMutability": "nonpayable",
      "type": "function"
    },
    {
      "inputs": [
        {
          "internalType": "bytes32",
          "name": "role",
          "type": "bytes32"
        },
        {
          "internalType": "address",
          "name": "callerConfirmation",
          "type": "address"
        }
      ],
      "name": "renounceRole",
      "outputs": [],
      "stateMutability": "nonpayable",
      "type": "function"
    },
    {
      "inputs": [
        {
          "internalType": "bytes32",
          "name": "role",
          "type": "bytes32"
        },
        {
          "internalType": "address",
          "name": "account",
          "type": "address"
        }
      ],
      "name": "revokeRole",
      "outputs": [],
      "stateMutability": "nonpayable",
      "type": "function"
    },
    {
      "inputs": [
        {
          "internalType": "address",
          "name": "from",
          "type": "address"
        },
        {
          "internalType": "address",
          "name": "to",
          "type": "address"
        },
        {
          "internalType": "uint256",
          "name": "tokenId",
          "type": "uint256"
        }
      ],
      "name": "safeTransferFrom",
      "outputs": [],
      "stateMutability": "nonpayable",
      "type": "function"
    },
    {
      "inputs": [
        {
          "internalType": "address",
          "name": "from",
          "type": "address"
        },
        {
          "internalType": "address",
          "name": "to",
          "type": "address"
        },
        {
          "internalType": "uint256",
          "name": "tokenId",
          "type": "uint256"
        },
        {
          "internalType": "bytes",
          "name": "data",
          "type": "bytes"
        }
      ],
      "name": "safeTransferFrom",
      "outputs": [],
      "stateMutability": "nonpayable",
      "type": "function"
    },
    {
      "inputs": [
        {
          "internalType": "address",
          "name": "operator",
          "type": "address"
        },
        {
          "internalType": "bool",
          "name": "approved",
          "type": "bool"
        }
      ],
      "name": "setApprovalForAll",
      "outputs": [],
      "stateMutability": "nonpayable",
      "type": "function"
    },
    {
      "inputs": [
        {
          "internalType": "bytes4",
          "name": "interfaceId",
          "type": "bytes4"
        }
      ],
      "name": "supportsInterface",
      "outputs": [
        {
          "internalType": "bool",
          "name": "",
          "type": "bool"
        }
      ],
      "stateMutability": "view",
      "type": "function"
    },
    {
      "inputs": [],
      "name": "symbol",
      "outputs": [
        {
          "internalType": "string",
          "name": "",
          "type": "string"
        }
      ],
      "stateMutability": "view",
      "type": "function"
    },
    {
      "inputs": [
        {
          "internalType": "uint256",
          "name": "",
          "type": "uint256"
        }
      ],
      "name": "tickets",
      "outputs": [
        {
          "internalType": "uint256",
          "name": "ticketId",
          "type": "uint256"
        },
        {
          "internalType": "uint256",
          "name": "matchId",
          "type": "uint256"
        },
        {
          "internalType": "enum PSLTicket.TicketTier",
          "name": "tier",
          "type": "uint8"
        },
        {
          "internalType": "uint256",
          "name": "purchasePrice",
          "type": "uint256"
        },
        {
          "internalType": "uint256",
          "name": "mintedAt",
          "type": "uint256"
        }
      ],
      "stateMutability": "view",
      "type": "function"
    },
    {
      "inputs": [
        {
          "internalType": "uint256",
          "name": "",
          "type": "uint256"
        },
        {
          "internalType": "enum PSLTicket.TicketTier",
          "name": "",
          "type": "uint8"
        }
      ],
      "name": "tierCapacity",
      "outputs": [
        {
          "internalType": "uint256",
          "name": "",
          "type": "uint256"
        }
      ],
      "stateMutability": "view",
      "type": "function"
    },
    {
      "inputs": [
        {
          "internalType": "uint256",
          "name": "",
          "type": "uint256"
        },
        {
          "internalType": "enum PSLTicket.TicketTier",
          "name": "",
          "type": "uint8"
        }
      ],
      "name": "tierMinted",
      "outputs": [
        {
          "internalType": "uint256",
          "name": "",
          "type": "uint256"
        }
      ],
      "stateMutability": "view",
      "type": "function"
    },
    {
      "inputs": [
        {
          "internalType": "uint256",
          "name": "tokenId",
          "type": "uint256"
        }
      ],
      "name": "tierOf",
      "outputs": [
        {
          "internalType": "enum PSLTicket.TicketTier",
          "name": "",
          "type": "uint8"
        }
      ],
      "stateMutability": "view",
      "type": "function"
    },
    {
      "inputs": [
        {
          "internalType": "uint256",
          "name": "tokenId",
          "type": "uint256"
        }
      ],
      "name": "tokenURI",
      "outputs": [
        {
          "internalType": "string",
          "name": "",
          "type": "string"
        }
      ],
      "stateMutability": "view",
      "type": "function"
    },
    {
      "inputs": [
        {
          "internalType": "address",
          "name": "from",
          "type": "address"
        },
        {
          "internalType": "address",
          "name": "to",
          "type": "address"
        },
        {
          "internalType": "uint256",
          "name": "tokenId",
          "type": "uint256"
        }
      ],
      "name": "transferFrom",
      "outputs": [],
      "stateMutability": "nonpayable",
      "type": "function"
    },
    {
      "inputs": [
        {
          "internalType": "address",
          "name": "newOwner",
          "type": "address"
        }
      ],
      "name": "transferOwnership",
      "outputs": [],
      "stateMutability": "nonpayable",
      "type": "function"
    },
    {
      "inputs": [
        {
          "internalType": "uint256",
          "name": "amount",
          "type": "uint256"
        }
      ],
      "name": "withdraw",
      "outputs": [],
      "stateMutability": "nonpayable",
      "type": "function"
    },
    {
      "stateMutability": "payable",
      "type": "receive"
    }
  ],
  "bytecode": "0x60806040523480156200001157600080fd5b50336040518060400160405280600a8152602001691414d308151a58dad95d60b21b815250604051806040016040528060098152602001681414d3151250d2d15560ba1b8152508160009081620000699190620002a6565b506001620000788282620002a6565b5050506001600160a01b038116620000aa57604051631e4fbdf760e01b81526000600482015260240160405180910390fd5b620000b581620000fc565b50620000c36000336200014e565b50620000f07f9f2df0fed2c77648de5860a4cc508cd0818c85b8b8a1ab4ceeef8d981c8956a6336200014e565b506000600b5562000372565b600680546001600160a01b038381166001600160a01b0319831681179093556040519116919082907f8be0079c531659141344cd1fd0a4f28419497f9722a3daafe3b4186f6b6457e090600090a35050565b60008281526007602090815260408083206001600160a01b038516845290915281205460ff16620001f75760008381526007602090815260408083206001600160a01b03861684529091529020805460ff19166001179055620001ae3390565b6001600160a01b0316826001600160a01b0316847f2f8788117e7eff1d82e926ec794901d17c78024a50270940304540a733656f0d60405160405180910390a4506001620001fb565b5060005b92915050565b634e487b7160e01b600052604160045260246000fd5b600181811c908216806200022c57607f821691505b6020821081036200024d57634e487b7160e01b600052602260045260246000fd5b50919050565b601f821115620002a157600081815260208120601f850160051c810160208610156200027c5750805b601f850160051c820191505b818110156200029d5782815560010162000288565b5050505b505050565b81516001600160401b03811115620002c257620002c262000201565b620002da81620002d3845462000217565b8462000253565b602080601f831160018114620003125760008415620002f95750858301515b600019600386901b1c1916600185901b1785556200029d565b600085815260208120601f198616915b82811015620003435788860151825594840194600190910190840162000322565b5085821015620003625787850151600019600388901b60f8161c191681555b5050505050600190811b01905550565b61222080620003826000396000f3fe6080604052600436106102555760003560e01c80637dc379fa11610139578063b88d4fde116100b6578063d9ae384c1161007a578063d9ae384c14610761578063e43755ea14610781578063e8c364a814610797578063e985e9c5146107cf578063ea8dc8d0146107ef578063f2fde38b1461080257600080fd5b8063b88d4fde146106b1578063c87b56dd146106d1578063c8be4d9d146106f1578063d53913931461070d578063d547741f1461074157600080fd5b8063980bfdb7116100fd578063980bfdb714610626578063a217fddf1461063c578063a22cb46514610651578063a476b73d14610671578063a67f63821461069157600080fd5b80637dc379fa146105915780638da5cb5b146105be5780638fb72aff146105dc57806391d14854146105f157806395d89b411461061157600080fd5b806342842e0e116101d257806354a246b91161019657806354a246b9146104c85780635586402d146104e457806362386cd3146105045780636352211e1461053c57806370a082311461055c578063715018a61461057c57600080fd5b806342842e0e146103eb578063505f0f0c1461040b578063507c8f691461042757806350b447121461043c57806353f96df21461049b57600080fd5b806323b872dd1161021957806323b872dd1461033b578063248a9ca31461035b5780632e1a7d4d1461038b5780632f2ff15d146103ab57806336568abe146103cb57600080fd5b806301ffc9a71461026157806306fdde0314610296578063081812fc146102b8578063095ea7b3146102f0578063179249221461031257600080fd5b3661025c57005b600080fd5b34801561026d57600080fd5b5061028161027c366004611d05565b610822565b60405190151581526020015b60405180910390f35b3480156102a257600080fd5b506102ab610833565b60405161028d9190611d72565b3480156102c457600080fd5b506102d86102d3366004611d85565b6108c5565b6040516001600160a01b03909116815260200161028d565b3480156102fc57600080fd5b5061031061030b366004611dba565b6108ee565b005b34801561031e57600080fd5b5061032d66b1a2bc2ec5000081565b60405190815260200161028d565b34801561034757600080fd5b50610310610356366004611de4565b6108fd565b34801561036757600080fd5b5061032d610376366004611d85565b60009081526007602052604090206001015490565b34801561039757600080fd5b506103106103a6366004611d85565b61098d565b3480156103b757600080fd5b506103106103c6366004611e20565b610a70565b3480156103d757600080fd5b506103106103e6366004611e20565b610a95565b3480156103f757600080fd5b50610310610406366004611de4565b610ac8565b34801561041757600080fd5b5061032d670de0b6b3a764000081565b34801561043357600080fd5b5061032d606481565b34801561044857600080fd5b5061048a610457366004611d85565b600860205260009081526040902080546001820154600283015460038401546004909401549293919260ff909116919085565b60405161028d959493929190611e84565b3480156104a757600080fd5b506104bb6104b6366004611d85565b610ae3565b60405161028d9190611eb2565b3480156104d457600080fd5b5061032d670214e8348c4f000081565b3480156104f057600080fd5b5061032d6104ff366004611ecf565b610b58565b34801561051057600080fd5b5061032d61051f366004611eea565b600960209081526000928352604080842090915290825290205481565b34801561054857600080fd5b506102d8610557366004611d85565b610b63565b34801561056857600080fd5b5061032d610577366004611f0d565b610b6e565b34801561058857600080fd5b50610310610bb6565b34801561059d57600080fd5b506105b16105ac366004611d85565b610bca565b60405161028d9190611f28565b3480156105ca57600080fd5b506006546001600160a01b03166102d8565b3480156105e857600080fd5b5061032d603281565b3480156105fd57600080fd5b5061028161060c366004611e20565b610ca8565b34801561061d57600080fd5b506102ab610cd3565b34801561063257600080fd5b5061032d6103e881565b34801561064857600080fd5b5061032d600081565b34801561065d57600080fd5b5061031061066c366004611f6b565b610ce2565b34801561067d57600080fd5b5061031061068c366004611d85565b610ced565b34801561069d57600080fd5b506103106106ac366004611d85565b610d7d565b3480156106bd57600080fd5b506103106106cc366004611fbd565b610dcb565b3480156106dd57600080fd5b506102ab6106ec366004611d85565b610de2565b3480156106fd57600080fd5b5061032d6706f05b59d3b2000081565b34801561071957600080fd5b5061032d7f9f2df0fed2c77648de5860a4cc508cd0818c85b8b8a1ab4ceeef8d981c8956a681565b34801561074d57600080fd5b5061031061075c366004611e20565b610e57565b34801561076d57600080fd5b5061032d61077c366004611eea565b610e7c565b34801561078d57600080fd5b5061032d6101f481565b3480156107a357600080fd5b5061032d6107b2366004611eea565b600a60209081526000928352604080842090915290825290205481565b3480156107db57600080fd5b506102816107ea366004612099565b610f2d565b6103106107fd366004611eea565b610f5b565b34801561080e57600080fd5b5061031061081d366004611f0d565b61127e565b600061082d826112bc565b92915050565b606060008054610842906120c3565b80601f016020809104026020016040519081016040528092919081815260200182805461086e906120c3565b80156108bb5780601f10610890576101008083540402835291602001916108bb565b820191906000526020600020905b81548152906001019060200180831161089e57829003601f168201915b5050505050905090565b60006108d0826112e1565b506000828152600460205260409020546001600160a01b031661082d565b6108f982823361131a565b5050565b6001600160a01b03821661092c57604051633250574960e11b8152600060048201526024015b60405180910390fd5b6000610939838333611327565b9050836001600160a01b0316816001600160a01b031614610987576040516364283d7b60e01b81526001600160a01b0380861660048301526024820184905282166044820152606401610923565b50505050565b600061099881611420565b814710156109df5760405162461bcd60e51b8152602060048201526014602482015273496e73756666696369656e742062616c616e636560601b6044820152606401610923565b604051600090339084908381818185875af1925050503d8060008114610a21576040519150601f19603f3d011682016040523d82523d6000602084013e610a26565b606091505b5050905080610a6b5760405162461bcd60e51b815260206004820152601160248201527015da5d1a191c985dd85b0819985a5b1959607a1b6044820152606401610923565b505050565b600082815260076020526040902060010154610a8b81611420565b610987838361142a565b6001600160a01b0381163314610abe5760405163334bd91960e11b815260040160405180910390fd5b610a6b82826114be565b610a6b83838360405180602001604052806000815250610dcb565b6000818152600260205260408120546001600160a01b0316610b3f5760405162461bcd60e51b8152602060048201526015602482015274151a58dad95d08191bd95cc81b9bdd08195e1a5cdd605a1b6044820152606401610923565b5060009081526008602052604090206002015460ff1690565b600061082d8261152b565b600061082d826112e1565b60006001600160a01b038216610b9a576040516322718ad960e21b815260006004820152602401610923565b506001600160a01b031660009081526003602052604090205490565b610bbe6115d3565b610bc86000611600565b565b610bd2611caf565b6000828152600260205260409020546001600160a01b0316610c2e5760405162461bcd60e51b8152602060048201526015602482015274151a58dad95d08191bd95cc81b9bdd08195e1a5cdd605a1b6044820152606401610923565b600082815260086020908152604091829020825160a081018452815481526001820154928101929092526002810154919290919083019060ff166003811115610c7957610c79611e4c565b6003811115610c8a57610c8a611e4c565b81526003820154602082015260049091015460409091015292915050565b60009182526007602090815260408084206001600160a01b0393909316845291905290205460ff1690565b606060018054610842906120c3565b6108f9338383611652565b6000818152600260205260409020546001600160a01b03163314610d465760405162461bcd60e51b815260206004820152601060248201526f2737ba103a34b1b5b2ba1037bbb732b960811b6044820152606401610923565b610d4f816116f1565b60405181907fd6acdc6c4f4076335309cf5eeb3b91b03b26861765e0726fce70f4617de8c7c690600090a250565b6000610d8881611420565b5060009081526009602090815260408083208380529091528082206103e89055600182528082206101f49055600282528082206064905560038252902060329055565b610dd68484846108fd565b6109878484848461172c565b6060610ded826112e1565b506000610e0560408051602081019091526000815290565b90506000815111610e255760405180602001604052806000815250610e50565b80610e2f84611855565b604051602001610e409291906120fd565b6040516020818303038152906040525b9392505050565b600082815260076020526040902060010154610e7281611420565b61098783836114be565b6000828152600960205260408120819081846003811115610e9f57610e9f611e4c565b6003811115610eb057610eb0611e4c565b81526020019081526020016000205490506000600a60008681526020019081526020016000206000856003811115610eea57610eea611e4c565b6003811115610efb57610efb611e4c565b8152602001908152602001600020549050808211610f1a576000610f24565b610f248183612142565b95945050505050565b6001600160a01b03918216600090815260056020908152604080832093909416825291909152205460ff1690565b60008211610f9e5760405162461bcd60e51b815260206004820152601060248201526f125b9d985b1a59081b585d18da08125160821b6044820152606401610923565b6004816003811115610fb257610fb2611e4c565b60ff1610610ff15760405162461bcd60e51b815260206004820152600c60248201526b24b73b30b634b2103a34b2b960a11b6044820152606401610923565b60008281526009602052604081208183600381111561101257611012611e4c565b600381111561102357611023611e4c565b81526020019081526020016000205490506000600a6000858152602001908152602001600020600084600381111561105d5761105d611e4c565b600381111561106e5761106e611e4c565b81526020019081526020016000205490508181106110be5760405162461bcd60e51b815260206004820152600d60248201526c151a595c881cdbdb19081bdd5d609a1b6044820152606401610923565b60006110c98461152b565b9050803410156111125760405162461bcd60e51b8152602060048201526014602482015273125b9cdd59999a58da595b9d081c185e5b595b9d60621b6044820152606401610923565b600b80546000918261112383612155565b9190505590506040518060a0016040528082815260200187815260200186600381111561115257611152611e4c565b81526020013481526020014281525060086000838152602001908152602001600020600082015181600001556020820151816001015560408201518160020160006101000a81548160ff021916908360038111156111b2576111b2611e4c565b021790555060608201516003808301919091556080909201516004909101556000878152600a602052604081209187908111156111f1576111f1611e4c565b600381111561120257611202611e4c565b8152602001908152602001600020600081548092919061122190612155565b919050555061123033826118e8565b80336001600160a01b03167f2ffc8fd66195a2b2b7d35c2b66eb51837a23b9a25550354a94da7681d63c313d88883460405161126e9392919061216e565b60405180910390a3505050505050565b6112866115d3565b6001600160a01b0381166112b057604051631e4fbdf760e01b815260006004820152602401610923565b6112b981611600565b50565b60006001600160e01b03198216637965db0b60e01b148061082d575061082d82611902565b6000818152600260205260408120546001600160a01b03168061082d57604051637e27328960e01b815260048101849052602401610923565b610a6b8383836001611952565b6000828152600260205260408120546001600160a01b039081169083161561135457611354818486611a58565b6001600160a01b0381161561139257611371600085600080611952565b6001600160a01b038116600090815260036020526040902080546000190190555b6001600160a01b038516156113c1576001600160a01b0385166000908152600360205260409020805460010190555b60008481526002602052604080822080546001600160a01b0319166001600160a01b0389811691821790925591518793918516917fddf252ad1be2c89b69c2b068fc378daa952ba7f163c4a11628f55a4df523b3ef91a4949350505050565b6112b98133611abc565b60006114368383610ca8565b6114b65760008381526007602090815260408083206001600160a01b03861684529091529020805460ff1916600117905561146e3390565b6001600160a01b0316826001600160a01b0316847f2f8788117e7eff1d82e926ec794901d17c78024a50270940304540a733656f0d60405160405180910390a450600161082d565b50600061082d565b60006114ca8383610ca8565b156114b65760008381526007602090815260408083206001600160a01b0386168085529252808320805460ff1916905551339286917ff6391f5c32d9c69d2a47ea670b442974b53935d1edc7fd64eb21e047a839171b9190a450600161082d565b60008082600381111561154057611540611e4c565b03611553575066b1a2bc2ec50000919050565b600182600381111561156757611567611e4c565b0361157b5750670214e8348c4f0000919050565b600282600381111561158f5761158f611e4c565b036115a357506706f05b59d3b20000919050565b60038260038111156115b7576115b7611e4c565b036115cb5750670de0b6b3a7640000919050565b506000919050565b6006546001600160a01b03163314610bc85760405163118cdaa760e01b8152336004820152602401610923565b600680546001600160a01b038381166001600160a01b0319831681179093556040519116919082907f8be0079c531659141344cd1fd0a4f28419497f9722a3daafe3b4186f6b6457e090600090a35050565b6001600160a01b03821661168457604051630b61174360e31b81526001600160a01b0383166004820152602401610923565b6001600160a01b03838116600081815260056020908152604080832094871680845294825291829020805460ff191686151590811790915591519182527f17307eab39ab6107e8899845ad3d59bd9653f200f220920489ca2b5937696c31910160405180910390a3505050565b60006117006000836000611327565b90506001600160a01b0381166108f957604051637e27328960e01b815260048101839052602401610923565b6001600160a01b0383163b1561098757604051630a85bd0160e11b81526001600160a01b0384169063150b7a029061176e903390889087908790600401612190565b6020604051808303816000875af19250505080156117a9575060408051601f3d908101601f191682019092526117a6918101906121cd565b60015b611812573d8080156117d7576040519150601f19603f3d011682016040523d82523d6000602084013e6117dc565b606091505b50805160000361180a57604051633250574960e11b81526001600160a01b0385166004820152602401610923565b805181602001fd5b6001600160e01b03198116630a85bd0160e11b1461184e57604051633250574960e11b81526001600160a01b0385166004820152602401610923565b5050505050565b6060600061186283611af5565b600101905060008167ffffffffffffffff81111561188257611882611fa7565b6040519080825280601f01601f1916602001820160405280156118ac576020820181803683370190505b5090508181016020015b600019016f181899199a1a9b1b9c1cb0b131b232b360811b600a86061a8153600a85049450846118b657509392505050565b6108f9828260405180602001604052806000815250611bcd565b60006001600160e01b031982166380ac58cd60e01b148061193357506001600160e01b03198216635b5e139f60e01b145b8061082d57506301ffc9a760e01b6001600160e01b031983161461082d565b808061196657506001600160a01b03821615155b15611a28576000611976846112e1565b90506001600160a01b038316158015906119a25750826001600160a01b0316816001600160a01b031614155b80156119b557506119b38184610f2d565b155b156119de5760405163a9fbf51f60e01b81526001600160a01b0384166004820152602401610923565b8115611a265783856001600160a01b0316826001600160a01b03167f8c5be1e5ebec7d5bd14f71427d1e84f3dd0314c0f7b2291e5b200ac8c7c3b92560405160405180910390a45b505b5050600090815260046020526040902080546001600160a01b0319166001600160a01b0392909216919091179055565b611a63838383611be4565b610a6b576001600160a01b038316611a9157604051637e27328960e01b815260048101829052602401610923565b60405163177e802f60e01b81526001600160a01b038316600482015260248101829052604401610923565b611ac68282610ca8565b6108f95760405163e2517d3f60e01b81526001600160a01b038216600482015260248101839052604401610923565b60008072184f03e93ff9f4daa797ed6e38ed64bf6a1f0160401b8310611b345772184f03e93ff9f4daa797ed6e38ed64bf6a1f0160401b830492506040015b6d04ee2d6d415b85acef81000000008310611b60576d04ee2d6d415b85acef8100000000830492506020015b662386f26fc100008310611b7e57662386f26fc10000830492506010015b6305f5e1008310611b96576305f5e100830492506008015b6127108310611baa57612710830492506004015b60648310611bbc576064830492506002015b600a831061082d5760010192915050565b611bd78383611c4a565b610a6b600084848461172c565b60006001600160a01b03831615801590611c425750826001600160a01b0316846001600160a01b03161480611c1e5750611c1e8484610f2d565b80611c4257506000828152600460205260409020546001600160a01b038481169116145b949350505050565b6001600160a01b038216611c7457604051633250574960e11b815260006004820152602401610923565b6000611c8283836000611327565b90506001600160a01b03811615610a6b576040516339e3563760e11b815260006004820152602401610923565b6040518060a00160405280600081526020016000815260200160006003811115611cdb57611cdb611e4c565b815260200160008152602001600081525090565b6001600160e01b0319811681146112b957600080fd5b600060208284031215611d1757600080fd5b8135610e5081611cef565b60005b83811015611d3d578181015183820152602001611d25565b50506000910152565b60008151808452611d5e816020860160208601611d22565b601f01601f19169290920160200192915050565b602081526000610e506020830184611d46565b600060208284031215611d9757600080fd5b5035919050565b80356001600160a01b0381168114611db557600080fd5b919050565b60008060408385031215611dcd57600080fd5b611dd683611d9e565b946020939093013593505050565b600080600060608486031215611df957600080fd5b611e0284611d9e565b9250611e1060208501611d9e565b9150604084013590509250925092565b60008060408385031215611e3357600080fd5b82359150611e4360208401611d9e565b90509250929050565b634e487b7160e01b600052602160045260246000fd5b60048110611e8057634e487b7160e01b600052602160045260246000fd5b9052565b8581526020810185905260a08101611e9f6040830186611e62565b6060820193909352608001529392505050565b6020810161082d8284611e62565b803560048110611db557600080fd5b600060208284031215611ee157600080fd5b610e5082611ec0565b60008060408385031215611efd57600080fd5b82359150611e4360208401611ec0565b600060208284031215611f1f57600080fd5b610e5082611d9e565b600060a08201905082518252602083015160208301526040830151611f506040840182611e62565b50606083015160608301526080830151608083015292915050565b60008060408385031215611f7e57600080fd5b611f8783611d9e565b915060208301358015158114611f9c57600080fd5b809150509250929050565b634e487b7160e01b600052604160045260246000fd5b60008060008060808587031215611fd357600080fd5b611fdc85611d9e565b9350611fea60208601611d9e565b925060408501359150606085013567ffffffffffffffff8082111561200e57600080fd5b818701915087601f83011261202257600080fd5b81358181111561203457612034611fa7565b604051601f8201601f19908116603f0116810190838211818310171561205c5761205c611fa7565b816040528281528a602084870101111561207557600080fd5b82602086016020830137600060208483010152809550505050505092959194509250565b600080604083850312156120ac57600080fd5b6120b583611d9e565b9150611e4360208401611d9e565b600181811c908216806120d757607f821691505b6020821081036120f757634e487b7160e01b600052602260045260246000fd5b50919050565b6000835161210f818460208801611d22565b835190830190612123818360208801611d22565b01949350505050565b634e487b7160e01b600052601160045260246000fd5b8181038181111561082d5761082d61212c565b6000600182016121675761216761212c565b5060010190565b838152606081016121826020830185611e62565b826040830152949350505050565b6001600160a01b03858116825284166020820152604081018390526080606082018190526000906121c390830184611d46565b9695505050505050565b6000602082840312156121df57600080fd5b8151610e5081611cef56fea26469706673582212208adf76361195ca3bc8259fd74bc7243fa4c5c505fdfafbb9c4a443fc5ce92d4b64736f6c63430008140033",
  "linkReferences": {},
  "deployedLinkReferences": {}
}