{
  "_format": "hh-sol-artifact-1",
  "contractName": "ImpactBadge",
  "sourceName": "contracts/ImpactBadge.sol",
  "abi": [
    {
      "inputs": [],
      "stateMutability": "nonpayable",
      "type": "constructor"
    },
    {
      "inputs": [],
      "name": "AccessControlBadConfirmation",
      "type": "error"
    },
    {
      "inputs": [
        {
          "internalType": "address",
          "name": "account",
          "type": "address"
        },
        {
          "internalType": "bytes32",
          "name": "neededRole",
          "type": "bytes32"
        }
      ],
      "name": "AccessControlUnauthorizedAccount",
      "type": "error"
    },
    {
      "inputs": [
        {
          "internalType": "address",
          "name": "sender",
          "type": "address"
        },
        {
          "internalType": "uint256",
          "name": "tokenId",
          "type": "uint256"
        },
        {
          "internalType": "address",
          "name": "owner",
          "type": "address"
        }
      ],
      "name": "ERC721IncorrectOwner",
      "type": "error"
    },
    {
      "inputs": [
        {
          "internalType": "address",
          "name": "operator",
          "type": "address"
        },
        {
          "internalType": "uint256",
          "name": "tokenId",
          "type": "uint256"
        }
      ],
      "name": "ERC721InsufficientApproval",
      "type": "error"
    },
    {
      "inputs": [
        {
          "internalType": "address",
          "name": "approver",
          "type": "address"
        }
      ],
      "name": "ERC721InvalidApprover",
      "type": "error"
    },
    {
      "inputs": [
        {
          "internalType": "address",
          "name": "operator",
          "type": "address"
        }
      ],
      "name": "ERC721InvalidOperator",
      "type": "error"
    },
    {
      "inputs": [
        {
          "internalType": "address",
          "name": "owner",
          "type": "address"
        }
      ],
      "name": "ERC721InvalidOwner",
      "type": "error"
    },
    {
      "inputs": [
        {
          "internalType": "address",
          "name": "receiver",
          "type": "address"
        }
      ],
      "name": "ERC721InvalidReceiver",
      "type": "error"
    },
    {
      "inputs": [
        {
          "internalType": "address",
          "name": "sender",
          "type": "address"
        }
      ],
      "name": "ERC721InvalidSender",
      "type": "error"
    },
    {
      "inputs": [
        {
          "internalType": "uint256",
          "name": "tokenId",
          "type": "uint256"
        }
      ],
      "name": "ERC721NonexistentToken",
      "type": "error"
    },
    {
      "inputs": [
        {
          "internalType": "address",
          "name": "owner",
          "type": "address"
        }
      ],
      "name": "OwnableInvalidOwner",
      "type": "error"
    },
    {
      "inputs": [
        {
          "internalType": "address",
          "name": "account",
          "type": "address"
        }
      ],
      "name": "OwnableUnauthorizedAccount",
      "type": "error"
    },
    {
      "anonymous": false,
      "inputs": [
        {
          "indexed": true,
          "internalType": "address",
          "name": "owner",
          "type": "address"
        },
        {
          "indexed": true,
          "internalType": "address",
          "name": "approved",
          "type": "address"
        },
        {
          "indexed": true,
          "internalType": "uint256",
          "name": "tokenId",
          "type": "uint256"
        }
      ],
      "name": "Approval",
      "type": "event"
    },
    {
      "anonymous": false,
      "inputs": [
        {
          "indexed": true,
          "internalType": "address",
          "name": "owner",
          "type": "address"
        },
        {
          "indexed": true,
          "internalType": "address",
          "name": "operator",
          "type": "address"
        },
        {
          "indexed": false,
          "internalType": "bool",
          "name": "approved",
          "type": "bool"
        }
      ],
      "name": "ApprovalForAll",
      "type": "event"
    },
    {
      "anonymous": false,
      "inputs": [
        {
          "indexed": true,
          "internalType": "uint256",
          "name": "tokenId",
          "type": "uint256"
        }
      ],
      "name": "BadgeBurned",
      "type": "event"
    },
    {
      "anonymous": false,
      "inputs": [
        {
          "indexed": true,
          "internalType": "address",
          "name": "recipient",
          "type": "address"
        },
        {
          "indexed": true,
          "internalType": "uint256",
          "name": "tokenId",
          "type": "uint256"
        },
        {
          "indexed": false,
          "internalType": "uint8",
          "name": "pillarId",
          "type": "uint8"
        },
        {
          "indexed": false,
          "internalType": "uint256",
          "name": "matchId",
          "type": "uint256"
        }
      ],
      "name": "BadgeMinted",
      "type": "event"
    },
    {
      "anonymous": false,
      "inputs": [
        {
          "indexed": true,
          "internalType": "address",
          "name": "previousOwner",
          "type": "address"
        },
        {
          "indexed": true,
          "internalType": "address",
          "name": "newOwner",
          "type": "address"
        }
      ],
      "name": "OwnershipTransferred",
      "type": "event"
    },
    {
      "anonymous": false,
      "inputs": [
        {
          "indexed": true,
          "internalType": "bytes32",
          "name": "role",
          "type": "bytes32"
        },
        {
          "indexed": true,
          "internalType": "bytes32",
          "name": "previousAdminRole",
          "type": "bytes32"
        },
        {
          "indexed": true,
          "internalType": "bytes32",
          "name": "newAdminRole",
          "type": "bytes32"
        }
      ],
      "name": "RoleAdminChanged",
      "type": "event"
    },
    {
      "anonymous": false,
      "inputs": [
        {
          "indexed": true,
          "internalType": "bytes32",
          "name": "role",
          "type": "bytes32"
        },
        {
          "indexed": true,
          "internalType": "address",
          "name": "account",
          "type": "address"
        },
        {
          "indexed": true,
          "internalType": "address",
          "name": "sender",
          "type": "address"
        }
      ],
      "name": "RoleGranted",
      "type": "event"
    },
    {
      "anonymous": false,
      "inputs": [
        {
          "indexed": true,
          "internalType": "bytes32",
          "name": "role",
          "type": "bytes32"
        },
        {
          "indexed": true,
          "internalType": "address",
          "name": "account",
          "type": "address"
        },
        {
          "indexed": true,
          "internalType": "address",
          "name": "sender",
          "type": "address"
        }
      ],
      "name": "RoleRevoked",
      "type": "event"
    },
    {
      "anonymous": false,
      "inputs": [
        {
          "indexed": true,
          "internalType": "address",
          "name": "from",
          "type": "address"
        },
        {
          "indexed": true,
          "internalType": "address",
          "name": "to",
          "type": "address"
        },
        {
          "indexed": true,
          "internalType": "uint256",
          "name": "tokenId",
          "type": "uint256"
        }
      ],
      "name": "Transfer",
      "type": "event"
    },
    {
      "inputs": [],
      "name": "DEFAULT_ADMIN_ROLE",
      "outputs": [
        {
          "internalType": "bytes32",
          "name": "",
          "type": "bytes32"
        }
      ],
      "stateMutability": "view",
      "type": "function"
    },
    {
      "inputs": [],
      "name": "MINTER_ROLE",
      "outputs": [
        {
          "internalType": "bytes32",
          "name": "",
          "type": "bytes32"
        }
      ],
      "stateMutability": "view",
      "type": "function"
    },
    {
      "inputs": [
        {
          "internalType": "address",
          "name": "to",
          "type": "address"
        },
        {
          "internalType": "uint256",
          "name": "tokenId",
          "type": "uint256"
        }
      ],
      "name": "approve",
      "outputs": [],
      "stateMutability": "nonpayable",
      "type": "function"
    },
    {
      "inputs": [
        {
          "internalType": "uint256",
          "name": "",
          "type": "uint256"
        }
      ],
      "name": "badges",
      "outputs": [
        {
          "internalType": "uint256",
          "name": "badgeId",
          "type": "uint256"
        },
        {
          "internalType": "uint256",
          "name": "matchId",
          "type": "uint256"
        },
        {
          "internalType": "uint8",
          "name": "pillarId",
          "type": "uint8"
        },
        {
          "internalType": "uint256",
          "name": "mintedAt",
          "type": "uint256"
        },
        {
          "internalType": "string",
          "name": "metadataURI",
          "type": "string"
        }
      ],
      "stateMutability": "view",
      "type": "function"
    },
    {
      "inputs": [
        {
          "internalType": "address",
          "name": "owner",
          "type": "address"
        }
      ],
      "name": "balanceOf",
      "outputs": [
        {
          "internalType": "uint256",
          "name": "",
          "type": "uint256"
        }
      ],
      "stateMutability": "view",
      "type": "function"
    },
    {
      "inputs": [
        {
          "internalType": "uint256",
          "name": "tokenId",
          "type": "uint256"
        }
      ],
      "name": "burnBadge",
      "outputs": [],
      "stateMutability": "nonpayable",
      "type": "function"
    },
    {
      "inputs": [
        {
          "internalType": "uint256",
          "name": "tokenId",
          "type": "uint256"
        }
      ],
      "name": "getApproved",
      "outputs": [
        {
          "internalType": "address",
          "name": "",
          "type": "address"
        }
      ],
      "stateMutability": "view",
      "type": "function"
    },
    {
      "inputs": [
        {
          "internalType": "uint256",
          "name": "tokenId",
          "type": "uint256"
        }
      ],
      "name": "getBadge",
      "outputs": [
        {
          "components": [
            {
              "internalType": "uint256",
              "name": "badgeId",
              "type": "uint256"
            },
            {
              "internalType": "uint256",
              "name": "matchId",
              "type": "uint256"
            },
            {
              "internalType": "uint8",
              "name": "pillarId",
              "type": "uint8"
            },
            {
              "internalType": "uint256",
              "name": "mintedAt",
              "type": "uint256"
            },
            {
              "internalType": "string",
              "name": "metadataURI",
              "type": "string"
            }
          ],
          "internalType": "struct ImpactBadge.Badge",
          "name": "",
          "type": "tuple"
        }
      ],
      "stateMutability": "view",
      "type": "function"
    },
    {
      "inputs": [
        {
          "internalType": "bytes32",
          "name": "role",
          "type": "bytes32"
        }
      ],
      "name": "getRoleAdmin",
      "outputs": [
        {
          "internalType": "bytes32",
          "name": "",
          "type": "bytes32"
        }
      ],
      "stateMutability": "view",
      "type": "function"
    },
    {
      "inputs": [
        {
          "internalType": "address",
          "name": "account",
          "type": "address"
        }
      ],
      "name": "grantMinterRole",
      "outputs": [],
      "stateMutability": "nonpayable",
      "type": "function"
    },
    {
      "inputs": [
        {
          "internalType": "bytes32",
          "name": "role",
          "type": "bytes32"
        },
        {
          "internalType": "address",
          "name": "account",
          "type": "address"
        }
      ],
      "name": "grantRole",
      "outputs": [],
      "stateMutability": "nonpayable",
      "type": "function"
    },
    {
      "inputs": [
        {
          "internalType": "bytes32",
          "name": "role",
          "type": "bytes32"
        },
        {
          "internalType": "address",
          "name": "account",
          "type": "address"
        }
      ],
      "name": "hasRole",
      "outputs": [
        {
          "internalType": "bool",
          "name": "",
          "type": "bool"
        }
      ],
      "stateMutability": "view",
      "type": "function"
    },
    {
      "inputs": [
        {
          "internalType": "address",
          "name": "owner",
          "type": "address"
        },
        {
          "internalType": "address",
          "name": "operator",
          "type": "address"
        }
      ],
      "name": "isApprovedForAll",
      "outputs": [
        {
          "internalType": "bool",
          "name": "",
          "type": "bool"
        }
      ],
      "stateMutability": "view",
      "type": "function"
    },
    {
      "inputs": [
        {
          "internalType": "address",
          "name": "to",
          "type": "address"
        },
        {
          "internalType": "uint8",
          "name": "pillarId",
          "type": "uint8"
        },
        {
          "internalType": "uint256",
          "name": "matchId",
          "type": "uint256"
        },
        {
          "internalType": "string",
          "name": "uri",
          "type": "string"
        }
      ],
      "name": "mintBadge",
      "outputs": [],
      "stateMutability": "nonpayable",
      "type": "function"
    },
    {
      "inputs": [],
      "name": "name",
      "outputs": [
        {
          "internalType": "string",
          "name": "",
          "type": "string"
        }
      ],
      "stateMutability": "view",
      "type": "function"
    },
    {
      "inputs": [],
      "name": "owner",
      "outputs": [
        {
          "internalType": "address",
          "name": "",
          "type": "address"
        }
      ],
      "stateMutability": "view",
      "type": "function"
    },
    {
      "inputs": [
        {
          "internalType": "uint256",
          "name": "tokenId",
          "type": "uint256"
        }
      ],
      "name": "ownerOf",
      "outputs": [
        {
          "internalType": "address",
          "name": "",
          "type": "address"
        }
      ],
      "stateMutability": "view",
      "type": "function"
    },
    {
      "inputs": [
        {
          "internalType": "uint256",
          "name": "tokenId",
          "type": "uint256"
        }
      ],
      "name": "pillarOf",
      "outputs": [
        {
          "internalType": "uint8",
          "name": "",
          "type": "uint8"
        }
      ],
      "stateMutability": "view",
      "type": "function"
    },
    {
      "inputs": [],
      "name": "renounceOwnership",
      "outputs": [],
      "stateMutability": "nonpayable",
      "type": "function"
    },
    {
      "inputs": [
        {
          "internalType": "bytes32",
          "name": "role",
          "type": "bytes32"
        },
        {
          "internalType": "address",
          "name": "callerConfirmation",
          "type": "address"
        }
      ],
      "name": "renounceRole",
      "outputs": [],
      "stateMutability": "nonpayable",
      "type": "function"
    },
    {
      "inputs": [
        {
          "internalType": "bytes32",
          "name": "role",
          "type": "bytes32"
        },
        {
          "internalType": "address",
          "name": "account",
          "type": "address"
        }
      ],
      "name": "revokeRole",
      "outputs": [],
      "stateMutability": "nonpayable",
      "type": "function"
    },
    {
      "inputs": [
        {
          "internalType": "address",
          "name": "from",
          "type": "address"
        },
        {
          "internalType": "address",
          "name": "to",
          "type": "address"
        },
        {
          "internalType": "uint256",
          "name": "tokenId",
          "type": "uint256"
        }
      ],
      "name": "safeTransferFrom",
      "outputs": [],
      "stateMutability": "nonpayable",
      "type": "function"
    },
    {
      "inputs": [
        {
          "internalType": "address",
          "name": "from",
          "type": "address"
        },
        {
          "internalType": "address",
          "name": "to",
          "type": "address"
        },
        {
          "internalType": "uint256",
          "name": "tokenId",
          "type": "uint256"
        },
        {
          "internalType": "bytes",
          "name": "data",
          "type": "bytes"
        }
      ],
      "name": "safeTransferFrom",
      "outputs": [],
      "stateMutability": "nonpayable",
      "type": "function"
    },
    {
      "inputs": [
        {
          "internalType": "address",
          "name": "operator",
          "type": "address"
        },
        {
          "internalType": "bool",
          "name": "approved",
          "type": "bool"
        }
      ],
      "name": "setApprovalForAll",
      "outputs": [],
      "stateMutability": "nonpayable",
      "type": "function"
    },
    {
      "inputs": [
        {
          "internalType": "bytes4",
          "name": "interfaceId",
          "type": "bytes4"
        }
      ],
      "name": "supportsInterface",
      "outputs": [
        {
          "internalType": "bool",
          "name": "",
          "type": "bool"
        }
      ],
      "stateMutability": "view",
      "type": "function"
    },
    {
      "inputs": [],
      "name": "symbol",
      "outputs": [
        {
          "internalType": "string",
          "name": "",
          "type": "string"
        }
      ],
      "stateMutability": "view",
      "type": "function"
    },
    {
      "inputs": [
        {
          "internalType": "uint256",
          "name": "tokenId",
          "type": "uint256"
        }
      ],
      "name": "tokenURI",
      "outputs": [
        {
          "internalType": "string",
          "name": "",
          "type": "string"
        }
      ],
      "stateMutability": "view",
      "type": "function"
    },
    {
      "inputs": [
        {
          "internalType": "address",
          "name": "from",
          "type": "address"
        },
        {
          "internalType": "address",
          "name": "to",
          "type": "address"
        },
        {
          "internalType": "uint256",
          "name": "tokenId",
          "type": "uint256"
        }
      ],
      "name": "transferFrom",
      "outputs": [],
      "stateMutability": "nonpayable",
      "type": "function"
    },
    {
      "inputs": [
        {
          "internalType": "address",
          "name": "newOwner",
          "type": "address"
        }
      ],
      "name": "transferOwnership",
      "outputs": [],
      "stateMutability": "nonpayable",
      "type": "function"
    }
  ],
  "bytecode": "0x60806040523480156200001157600080fd5b50336040518060400160405280601081526020016f50534c20496d7061637420426164676560801b8152506040518060400160405280600881526020016750534c424144474560c01b81525081600090816200006e9190620002ab565b5060016200007d8282620002ab565b5050506001600160a01b038116620000af57604051631e4fbdf760e01b81526000600482015260240160405180910390fd5b620000ba8162000101565b50620000c860003362000153565b50620000f57f9f2df0fed2c77648de5860a4cc508cd0818c85b8b8a1ab4ceeef8d981c8956a63362000153565b50600060095562000377565b600680546001600160a01b038381166001600160a01b0319831681179093556040519116919082907f8be0079c531659141344cd1fd0a4f28419497f9722a3daafe3b4186f6b6457e090600090a35050565b60008281526007602090815260408083206001600160a01b038516845290915281205460ff16620001fc5760008381526007602090815260408083206001600160a01b03861684529091529020805460ff19166001179055620001b33390565b6001600160a01b0316826001600160a01b0316847f2f8788117e7eff1d82e926ec794901d17c78024a50270940304540a733656f0d60405160405180910390a450600162000200565b5060005b92915050565b634e487b7160e01b600052604160045260246000fd5b600181811c908216806200023157607f821691505b6020821081036200025257634e487b7160e01b600052602260045260246000fd5b50919050565b601f821115620002a657600081815260208120601f850160051c81016020861015620002815750805b601f850160051c820191505b81811015620002a2578281556001016200028d565b5050505b505050565b81516001600160401b03811115620002c757620002c762000206565b620002df81620002d884546200021c565b8462000258565b602080601f831160018114620003175760008415620002fe5750858301515b600019600386901b1c1916600185901b178555620002a2565b600085815260208120601f198616915b82811015620003485788860151825594840194600190910190840162000327565b5085821015620003675787850151600019600388901b60f8161c191681555b5050505050600190811b01905550565b611adb80620003876000396000f3fe608060405234801561001057600080fd5b50600436106101cf5760003560e01c8063715018a611610104578063a22cb465116100a2578063d547741f11610071578063d547741f1461041f578063e351d43714610432578063e985e9c514610445578063f2fde38b1461045857600080fd5b8063a22cb465146103bf578063b88d4fde146103d2578063c87b56dd146103e5578063d5391393146103f857600080fd5b806391d14854116100de57806391d148541461037857806395d89b411461038b57806398e36d8b14610393578063a217fddf146103b757600080fd5b8063715018a61461033f5780638d838622146103475780638da5cb5b1461036757600080fd5b806336568abe116101715780635484ac151161014b5780635484ac15146102e157806355de28ae146103065780636352211e1461031957806370a082311461032c57600080fd5b806336568abe146102a85780633dd1eb61146102bb57806342842e0e146102ce57600080fd5b8063095ea7b3116101ad578063095ea7b31461023c57806323b872dd14610251578063248a9ca3146102645780632f2ff15d1461029557600080fd5b806301ffc9a7146101d457806306fdde03146101fc578063081812fc14610211575b600080fd5b6101e76101e236600461152d565b61046b565b60405190151581526020015b60405180910390f35b61020461047c565b6040516101f39190611597565b61022461021f3660046115aa565b61050e565b6040516001600160a01b0390911681526020016101f3565b61024f61024a3660046115df565b610537565b005b61024f61025f366004611609565b610546565b6102876102723660046115aa565b60009081526007602052604090206001015490565b6040519081526020016101f3565b61024f6102a3366004611645565b6105d6565b61024f6102b6366004611645565b6105fb565b61024f6102c9366004611671565b610633565b61024f6102dc366004611609565b610668565b6102f46102ef3660046115aa565b610683565b60405160ff90911681526020016101f3565b61024f6103143660046115aa565b6106d0565b6102246103273660046115aa565b61075f565b61028761033a366004611671565b61076a565b61024f6107b2565b61035a6103553660046115aa565b6107c6565b6040516101f3919061168c565b6006546001600160a01b0316610224565b6101e7610386366004611645565b610913565b61020461093e565b6103a66103a13660046115aa565b61094d565b6040516101f39594939291906116d2565b610287600081565b61024f6103cd36600461170b565b610a0a565b61024f6103e03660046117d3565b610a15565b6102046103f33660046115aa565b610a2c565b6102877f9f2df0fed2c77648de5860a4cc508cd0818c85b8b8a1ab4ceeef8d981c8956a681565b61024f61042d366004611645565b610b04565b61024f61044036600461184f565b610b29565b6101e7610453366004611884565b610ccb565b61024f610466366004611671565b610cf9565b600061047682610d37565b92915050565b60606000805461048b906118ae565b80601f01602080910402602001604051908101604052809291908181526020018280546104b7906118ae565b80156105045780601f106104d957610100808354040283529160200191610504565b820191906000526020600020905b8154815290600101906020018083116104e757829003601f168201915b5050505050905090565b600061051982610d5c565b506000828152600460205260409020546001600160a01b0316610476565b610542828233610d95565b5050565b6001600160a01b03821661057557604051633250574960e11b8152600060048201526024015b60405180910390fd5b6000610582838333610da2565b9050836001600160a01b0316816001600160a01b0316146105d0576040516364283d7b60e01b81526001600160a01b038086166004830152602482018490528216604482015260640161056c565b50505050565b6000828152600760205260409020600101546105f181610e9b565b6105d08383610ea5565b6001600160a01b03811633146106245760405163334bd91960e11b815260040160405180910390fd5b61062e8282610f39565b505050565b600061063e81610e9b565b6105427f9f2df0fed2c77648de5860a4cc508cd0818c85b8b8a1ab4ceeef8d981c8956a6836105d6565b61062e83838360405180602001604052806000815250610a15565b6000818152600260205260408120546001600160a01b03166106b75760405162461bcd60e51b815260040161056c906118e8565b5060009081526008602052604090206002015460ff1690565b6000818152600260205260409020546001600160a01b031633146107285760405162461bcd60e51b815260206004820152600f60248201526e2737ba103130b233b29037bbb732b960891b604482015260640161056c565b61073181610fa6565b60405181907fe734e496a91063a9c63bfcf36a9afdcf8d72e5cc516842dd66a23ccb01d619cf90600090a250565b600061047682610d5c565b60006001600160a01b038216610796576040516322718ad960e21b81526000600482015260240161056c565b506001600160a01b031660009081526003602052604090205490565b6107ba610fe1565b6107c4600061100e565b565b6107fb6040518060a001604052806000815260200160008152602001600060ff16815260200160008152602001606081525090565b6000828152600260205260409020546001600160a01b031661082f5760405162461bcd60e51b815260040161056c906118e8565b600082815260086020908152604091829020825160a08101845281548152600182015492810192909252600281015460ff16928201929092526003820154606082015260048201805491929160808401919061088a906118ae565b80601f01602080910402602001604051908101604052809291908181526020018280546108b6906118ae565b80156109035780601f106108d857610100808354040283529160200191610903565b820191906000526020600020905b8154815290600101906020018083116108e657829003601f168201915b5050505050815250509050919050565b60009182526007602090815260408084206001600160a01b0393909316845291905290205460ff1690565b60606001805461048b906118ae565b600860205260009081526040902080546001820154600283015460038401546004850180549495939460ff909316939192610987906118ae565b80601f01602080910402602001604051908101604052809291908181526020018280546109b3906118ae565b8015610a005780601f106109d557610100808354040283529160200191610a00565b820191906000526020600020905b8154815290600101906020018083116109e357829003601f168201915b5050505050905085565b610542338383611060565b610a20848484610546565b6105d0848484846110ff565b6000818152600260205260409020546060906001600160a01b0316610a635760405162461bcd60e51b815260040161056c906118e8565b60008281526008602052604090206004018054610a7f906118ae565b80601f0160208091040260200160405190810160405280929190818152602001828054610aab906118ae565b8015610af85780601f10610acd57610100808354040283529160200191610af8565b820191906000526020600020905b815481529060010190602001808311610adb57829003601f168201915b50505050509050919050565b600082815260076020526040902060010154610b1f81610e9b565b6105d08383610f39565b7f9f2df0fed2c77648de5860a4cc508cd0818c85b8b8a1ab4ceeef8d981c8956a6610b5381610e9b565b6001600160a01b038516610b9d5760405162461bcd60e51b8152602060048201526011602482015270125b9d985b1a59081c9958da5c1a595b9d607a1b604482015260640161056c565b60048460ff1610610be15760405162461bcd60e51b815260206004820152600e60248201526d24b73b30b634b2103834b63630b960911b604482015260640161056c565b6009805460009182610bf283611916565b909155506040805160a081018252828152602080820188815260ff8a81168486019081524260608601908152608086018b8152600089815260089096529690942085518155925160018401555160028301805460ff191691909216179055905160038201559151929350916004820190610c6c908261198b565b50905050610c7a8682611228565b6040805160ff871681526020810186905282916001600160a01b038916917ff6b70dedb47bc6e8680e80b2d7055aedd55e5598da29758ae2b17b4b13342239910160405180910390a3505050505050565b6001600160a01b03918216600090815260056020908152604080832093909416825291909152205460ff1690565b610d01610fe1565b6001600160a01b038116610d2b57604051631e4fbdf760e01b81526000600482015260240161056c565b610d348161100e565b50565b60006001600160e01b03198216637965db0b60e01b1480610476575061047682611242565b6000818152600260205260408120546001600160a01b03168061047657604051637e27328960e01b81526004810184905260240161056c565b61062e8383836001611292565b6000828152600260205260408120546001600160a01b0390811690831615610dcf57610dcf818486611398565b6001600160a01b03811615610e0d57610dec600085600080611292565b6001600160a01b038116600090815260036020526040902080546000190190555b6001600160a01b03851615610e3c576001600160a01b0385166000908152600360205260409020805460010190555b60008481526002602052604080822080546001600160a01b0319166001600160a01b0389811691821790925591518793918516917fddf252ad1be2c89b69c2b068fc378daa952ba7f163c4a11628f55a4df523b3ef91a4949350505050565b610d3481336113fc565b6000610eb18383610913565b610f315760008381526007602090815260408083206001600160a01b03861684529091529020805460ff19166001179055610ee93390565b6001600160a01b0316826001600160a01b0316847f2f8788117e7eff1d82e926ec794901d17c78024a50270940304540a733656f0d60405160405180910390a4506001610476565b506000610476565b6000610f458383610913565b15610f315760008381526007602090815260408083206001600160a01b0386168085529252808320805460ff1916905551339286917ff6391f5c32d9c69d2a47ea670b442974b53935d1edc7fd64eb21e047a839171b9190a4506001610476565b6000610fb56000836000610da2565b90506001600160a01b03811661054257604051637e27328960e01b81526004810183905260240161056c565b6006546001600160a01b031633146107c45760405163118cdaa760e01b815233600482015260240161056c565b600680546001600160a01b038381166001600160a01b0319831681179093556040519116919082907f8be0079c531659141344cd1fd0a4f28419497f9722a3daafe3b4186f6b6457e090600090a35050565b6001600160a01b03821661109257604051630b61174360e31b81526001600160a01b038316600482015260240161056c565b6001600160a01b03838116600081815260056020908152604080832094871680845294825291829020805460ff191686151590811790915591519182527f17307eab39ab6107e8899845ad3d59bd9653f200f220920489ca2b5937696c31910160405180910390a3505050565b6001600160a01b0383163b156105d057604051630a85bd0160e11b81526001600160a01b0384169063150b7a0290611141903390889087908790600401611a4b565b6020604051808303816000875af192505050801561117c575060408051601f3d908101601f1916820190925261117991810190611a88565b60015b6111e5573d8080156111aa576040519150601f19603f3d011682016040523d82523d6000602084013e6111af565b606091505b5080516000036111dd57604051633250574960e11b81526001600160a01b038516600482015260240161056c565b805181602001fd5b6001600160e01b03198116630a85bd0160e11b1461122157604051633250574960e11b81526001600160a01b038516600482015260240161056c565b5050505050565b610542828260405180602001604052806000815250611435565b60006001600160e01b031982166380ac58cd60e01b148061127357506001600160e01b03198216635b5e139f60e01b145b8061047657506301ffc9a760e01b6001600160e01b0319831614610476565b80806112a657506001600160a01b03821615155b156113685760006112b684610d5c565b90506001600160a01b038316158015906112e25750826001600160a01b0316816001600160a01b031614155b80156112f557506112f38184610ccb565b155b1561131e5760405163a9fbf51f60e01b81526001600160a01b038416600482015260240161056c565b81156113665783856001600160a01b0316826001600160a01b03167f8c5be1e5ebec7d5bd14f71427d1e84f3dd0314c0f7b2291e5b200ac8c7c3b92560405160405180910390a45b505b5050600090815260046020526040902080546001600160a01b0319166001600160a01b0392909216919091179055565b6113a383838361144c565b61062e576001600160a01b0383166113d157604051637e27328960e01b81526004810182905260240161056c565b60405163177e802f60e01b81526001600160a01b03831660048201526024810182905260440161056c565b6114068282610913565b6105425760405163e2517d3f60e01b81526001600160a01b03821660048201526024810183905260440161056c565b61143f83836114b2565b61062e60008484846110ff565b60006001600160a01b038316158015906114aa5750826001600160a01b0316846001600160a01b0316148061148657506114868484610ccb565b806114aa57506000828152600460205260409020546001600160a01b038481169116145b949350505050565b6001600160a01b0382166114dc57604051633250574960e11b81526000600482015260240161056c565b60006114ea83836000610da2565b90506001600160a01b0381161561062e576040516339e3563760e11b81526000600482015260240161056c565b6001600160e01b031981168114610d3457600080fd5b60006020828403121561153f57600080fd5b813561154a81611517565b9392505050565b6000815180845260005b818110156115775760208185018101518683018201520161155b565b506000602082860101526020601f19601f83011685010191505092915050565b60208152600061154a6020830184611551565b6000602082840312156115bc57600080fd5b5035919050565b80356001600160a01b03811681146115da57600080fd5b919050565b600080604083850312156115f257600080fd5b6115fb836115c3565b946020939093013593505050565b60008060006060848603121561161e57600080fd5b611627846115c3565b9250611635602085016115c3565b9150604084013590509250925092565b6000806040838503121561165857600080fd5b82359150611668602084016115c3565b90509250929050565b60006020828403121561168357600080fd5b61154a826115c3565b60208152815160208201526020820151604082015260ff6040830151166060820152606082015160808201526000608083015160a0808401526114aa60c0840182611551565b85815284602082015260ff8416604082015282606082015260a06080820152600061170060a0830184611551565b979650505050505050565b6000806040838503121561171e57600080fd5b611727836115c3565b91506020830135801515811461173c57600080fd5b809150509250929050565b634e487b7160e01b600052604160045260246000fd5b600067ffffffffffffffff8084111561177857611778611747565b604051601f8501601f19908116603f011681019082821181831017156117a0576117a0611747565b816040528093508581528686860111156117b957600080fd5b858560208301376000602087830101525050509392505050565b600080600080608085870312156117e957600080fd5b6117f2856115c3565b9350611800602086016115c3565b925060408501359150606085013567ffffffffffffffff81111561182357600080fd5b8501601f8101871361183457600080fd5b6118438782356020840161175d565b91505092959194509250565b6000806000806080858703121561186557600080fd5b61186e856115c3565b9350602085013560ff8116811461180057600080fd5b6000806040838503121561189757600080fd5b6118a0836115c3565b9150611668602084016115c3565b600181811c908216806118c257607f821691505b6020821081036118e257634e487b7160e01b600052602260045260246000fd5b50919050565b60208082526014908201527310985919d948191bd95cc81b9bdd08195e1a5cdd60621b604082015260600190565b60006001820161193657634e487b7160e01b600052601160045260246000fd5b5060010190565b601f82111561062e57600081815260208120601f850160051c810160208610156119645750805b601f850160051c820191505b8181101561198357828155600101611970565b505050505050565b815167ffffffffffffffff8111156119a5576119a5611747565b6119b9816119b384546118ae565b8461193d565b602080601f8311600181146119ee57600084156119d65750858301515b600019600386901b1c1916600185901b178555611983565b600085815260208120601f198616915b82811015611a1d578886015182559484019460019091019084016119fe565b5085821015611a3b5787850151600019600388901b60f8161c191681555b5050505050600190811b01905550565b6001600160a01b0385811682528416602082015260408101839052608060608201819052600090611a7e90830184611551565b9695505050505050565b600060208284031215611a9a57600080fd5b815161154a8161151756fea2646970667358221220fb3a2c2890a05533916d43050a16ba4ab42cf9a074ce9cb1a8838076dab50f5764736f6c63430008140033",
  "linkReferences": {},
  "deployedLinkReferences": {}
}