{
  "_format": "hh-sol-artifact-1",
  "contractName": "PSLImpactMarket",
  "sourceName": "contracts/PSLImpactMarket.sol",
  "abi": [
    {
      "inputs": [],
      "stateMutability": "nonpayable",
      "type": "constructor"
    },
    {
      "inputs": [],
      "name": "AccessControlBadConfirmation",
      "type": "error"
    },
    {
      "inputs": [
        {
          "internalType": "address",
          "name": "account",
          "type": "address"
        },
        {
          "internalType": "bytes32",
          "name": "neededRole",
          "type": "bytes32"
        }
      ],
      "name": "AccessControlUnauthorizedAccount",
      "type": "error"
    },
    {
      "inputs": [
        {
          "internalType": "address",
          "name": "owner",
          "type": "address"
        }
      ],
      "name": "OwnableInvalidOwner",
      "type": "error"
    },
    {
      "inputs": [
        {
          "internalType": "address",
          "name": "account",
          "type": "address"
        }
      ],
      "name": "OwnableUnauthorizedAccount",
      "type": "error"
    },
    {
      "inputs": [],
      "name": "ReentrancyGuardReentrantCall",
      "type": "error"
    },
    {
      "anonymous": false,
      "inputs": [
        {
          "indexed": true,
          "internalType": "address",
          "name": "contributor",
          "type": "address"
        },
        {
          "indexed": false,
          "internalType": "uint256",
          "name": "totalContributed",
          "type": "uint256"
        },
        {
          "indexed": false,
          "internalType": "uint256",
          "name": "rank",
          "type": "uint256"
        }
      ],
      "name": "InfinityWallUpdated",
      "type": "event"
    },
    {
      "anonymous": false,
      "inputs": [
        {
          "indexed": true,
          "internalType": "uint256",
          "name": "matchId",
          "type": "uint256"
        },
        {
          "indexed": false,
          "internalType": "uint8",
          "name": "team1",
          "type": "uint8"
        },
        {
          "indexed": false,
          "internalType": "uint8",
          "name": "team2",
          "type": "uint8"
        },
        {
          "indexed": false,
          "internalType": "string",
          "name": "venue",
          "type": "string"
        }
      ],
      "name": "MatchCreated",
      "type": "event"
    },
    {
      "anonymous": false,
      "inputs": [
        {
          "indexed": true,
          "internalType": "uint256",
          "name": "matchId",
          "type": "uint256"
        }
      ],
      "name": "MatchFinalized",
      "type": "event"
    },
    {
      "anonymous": false,
      "inputs": [
        {
          "indexed": true,
          "internalType": "address",
          "name": "previousOwner",
          "type": "address"
        },
        {
          "indexed": true,
          "internalType": "address",
          "name": "newOwner",
          "type": "address"
        }
      ],
      "name": "OwnershipTransferred",
      "type": "event"
    },
    {
      "anonymous": false,
      "inputs": [
        {
          "indexed": true,
          "internalType": "uint256",
          "name": "matchId",
          "type": "uint256"
        },
        {
          "indexed": true,
          "internalType": "bytes32",
          "name": "playerId",
          "type": "bytes32"
        },
        {
          "indexed": true,
          "internalType": "address",
          "name": "tipper",
          "type": "address"
        },
        {
          "indexed": false,
          "internalType": "uint256",
          "name": "amount",
          "type": "uint256"
        }
      ],
      "name": "PlayerTipped",
      "type": "event"
    },
    {
      "anonymous": false,
      "inputs": [
        {
          "indexed": true,
          "internalType": "bytes32",
          "name": "role",
          "type": "bytes32"
        },
        {
          "indexed": true,
          "internalType": "bytes32",
          "name": "previousAdminRole",
          "type": "bytes32"
        },
        {
          "indexed": true,
          "internalType": "bytes32",
          "name": "newAdminRole",
          "type": "bytes32"
        }
      ],
      "name": "RoleAdminChanged",
      "type": "event"
    },
    {
      "anonymous": false,
      "inputs": [
        {
          "indexed": true,
          "internalType": "bytes32",
          "name": "role",
          "type": "bytes32"
        },
        {
          "indexed": true,
          "internalType": "address",
          "name": "account",
          "type": "address"
        },
        {
          "indexed": true,
          "internalType": "address",
          "name": "sender",
          "type": "address"
        }
      ],
      "name": "RoleGranted",
      "type": "event"
    },
    {
      "anonymous": false,
      "inputs": [
        {
          "indexed": true,
          "internalType": "bytes32",
          "name": "role",
          "type": "bytes32"
        },
        {
          "indexed": true,
          "internalType": "address",
          "name": "account",
          "type": "address"
        },
        {
          "indexed": true,
          "internalType": "address",
          "name": "sender",
          "type": "address"
        }
      ],
      "name": "RoleRevoked",
      "type": "event"
    },
    {
      "anonymous": false,
      "inputs": [
        {
          "indexed": true,
          "internalType": "uint256",
          "name": "matchId",
          "type": "uint256"
        },
        {
          "indexed": true,
          "internalType": "uint8",
          "name": "pillarId",
          "type": "uint8"
        },
        {
          "indexed": true,
          "internalType": "address",
          "name": "staker",
          "type": "address"
        },
        {
          "indexed": false,
          "internalType": "uint256",
          "name": "amount",
          "type": "uint256"
        }
      ],
      "name": "Staked",
      "type": "event"
    },
    {
      "inputs": [],
      "name": "ADMIN_ROLE",
      "outputs": [
        {
          "internalType": "bytes32",
          "name": "",
          "type": "bytes32"
        }
      ],
      "stateMutability": "view",
      "type": "function"
    },
    {
      "inputs": [],
      "name": "DEFAULT_ADMIN_ROLE",
      "outputs": [
        {
          "internalType": "bytes32",
          "name": "",
          "type": "bytes32"
        }
      ],
      "stateMutability": "view",
      "type": "function"
    },
    {
      "inputs": [],
      "name": "ORACLE_ROLE",
      "outputs": [
        {
          "internalType": "bytes32",
          "name": "",
          "type": "bytes32"
        }
      ],
      "stateMutability": "view",
      "type": "function"
    },
    {
      "inputs": [
        {
          "internalType": "address",
          "name": "",
          "type": "address"
        }
      ],
      "name": "contributions",
      "outputs": [
        {
          "internalType": "uint256",
          "name": "totalContributed",
          "type": "uint256"
        },
        {
          "internalType": "uint256",
          "name": "stakeCount",
          "type": "uint256"
        },
        {
          "internalType": "uint256",
          "name": "tipCount",
          "type": "uint256"
        }
      ],
      "stateMutability": "view",
      "type": "function"
    },
    {
      "inputs": [
        {
          "internalType": "uint8",
          "name": "team1",
          "type": "uint8"
        },
        {
          "internalType": "uint8",
          "name": "team2",
          "type": "uint8"
        },
        {
          "internalType": "uint256",
          "name": "startTime",
          "type": "uint256"
        },
        {
          "internalType": "string",
          "name": "venue",
          "type": "string"
        }
      ],
      "name": "createMatch",
      "outputs": [],
      "stateMutability": "nonpayable",
      "type": "function"
    },
    {
      "inputs": [
        {
          "internalType": "uint256",
          "name": "matchId",
          "type": "uint256"
        }
      ],
      "name": "finalizeMatch",
      "outputs": [],
      "stateMutability": "nonpayable",
      "type": "function"
    },
    {
      "inputs": [],
      "name": "getInfinityWall",
      "outputs": [
        {
          "internalType": "address[]",
          "name": "",
          "type": "address[]"
        }
      ],
      "stateMutability": "view",
      "type": "function"
    },
    {
      "inputs": [
        {
          "internalType": "address",
          "name": "contributor",
          "type": "address"
        }
      ],
      "name": "getLeaderboard",
      "outputs": [
        {
          "components": [
            {
              "internalType": "uint256",
              "name": "totalContributed",
              "type": "uint256"
            },
            {
              "internalType": "uint256",
              "name": "stakeCount",
              "type": "uint256"
            },
            {
              "internalType": "uint256",
              "name": "tipCount",
              "type": "uint256"
            }
          ],
          "internalType": "struct PSLImpactMarket.Contribution",
          "name": "",
          "type": "tuple"
        }
      ],
      "stateMutability": "view",
      "type": "function"
    },
    {
      "inputs": [
        {
          "internalType": "uint256",
          "name": "matchId",
          "type": "uint256"
        }
      ],
      "name": "getMatch",
      "outputs": [
        {
          "components": [
            {
              "internalType": "uint256",
              "name": "matchId",
              "type": "uint256"
            },
            {
              "internalType": "uint8",
              "name": "team1",
              "type": "uint8"
            },
            {
              "internalType": "uint8",
              "name": "team2",
              "type": "uint8"
            },
            {
              "internalType": "uint256",
              "name": "startTime",
              "type": "uint256"
            },
            {
              "internalType": "uint256",
              "name": "endTime",
              "type": "uint256"
            },
            {
              "internalType": "string",
              "name": "venue",
              "type": "string"
            },
            {
              "internalType": "bool",
              "name": "active",
              "type": "bool"
            }
          ],
          "internalType": "struct PSLImpactMarket.Match",
          "name": "",
          "type": "tuple"
        }
      ],
      "stateMutability": "view",
      "type": "function"
    },
    {
      "inputs": [
        {
          "internalType": "uint256",
          "name": "matchId",
          "type": "uint256"
        },
        {
          "internalType": "uint8",
          "name": "pillarId",
          "type": "uint8"
        }
      ],
      "name": "getPool",
      "outputs": [
        {
          "components": [
            {
              "internalType": "uint256",
              "name": "matchId",
              "type": "uint256"
            },
            {
              "internalType": "uint8",
              "name": "pillarId",
              "type": "uint8"
            },
            {
              "internalType": "uint256",
              "name": "totalStaked",
              "type": "uint256"
            },
            {
              "internalType": "uint256",
              "name": "stakeCount",
              "type": "uint256"
            }
          ],
          "internalType": "struct PSLImpactMarket.Pool",
          "name": "",
          "type": "tuple"
        }
      ],
      "stateMutability": "view",
      "type": "function"
    },
    {
      "inputs": [
        {
          "internalType": "bytes32",
          "name": "role",
          "type": "bytes32"
        }
      ],
      "name": "getRoleAdmin",
      "outputs": [
        {
          "internalType": "bytes32",
          "name": "",
          "type": "bytes32"
        }
      ],
      "stateMutability": "view",
      "type": "function"
    },
    {
      "inputs": [
        {
          "internalType": "address",
          "name": "account",
          "type": "address"
        }
      ],
      "name": "grantOracleRole",
      "outputs": [],
      "stateMutability": "nonpayable",
      "type": "function"
    },
    {
      "inputs": [
        {
          "internalType": "bytes32",
          "name": "role",
          "type": "bytes32"
        },
        {
          "internalType": "address",
          "name": "account",
          "type": "address"
        }
      ],
      "name": "grantRole",
      "outputs": [],
      "stateMutability": "nonpayable",
      "type": "function"
    },
    {
      "inputs": [
        {
          "internalType": "bytes32",
          "name": "role",
          "type": "bytes32"
        },
        {
          "internalType": "address",
          "name": "account",
          "type": "address"
        }
      ],
      "name": "hasRole",
      "outputs": [
        {
          "internalType": "bool",
          "name": "",
          "type": "bool"
        }
      ],
      "stateMutability": "view",
      "type": "function"
    },
    {
      "inputs": [
        {
          "internalType": "uint256",
          "name": "matchId",
          "type": "uint256"
        },
        {
          "internalType": "string",
          "name": "eventData",
          "type": "string"
        }
      ],
      "name": "logImpactEvent",
      "outputs": [],
      "stateMutability": "nonpayable",
      "type": "function"
    },
    {
      "inputs": [],
      "name": "matchCounter",
      "outputs": [
        {
          "internalType": "uint256",
          "name": "",
          "type": "uint256"
        }
      ],
      "stateMutability": "view",
      "type": "function"
    },
    {
      "inputs": [
        {
          "internalType": "uint256",
          "name": "",
          "type": "uint256"
        }
      ],
      "name": "matches",
      "outputs": [
        {
          "internalType": "uint256",
          "name": "matchId",
          "type": "uint256"
        },
        {
          "internalType": "uint8",
          "name": "team1",
          "type": "uint8"
        },
        {
          "internalType": "uint8",
          "name": "team2",
          "type": "uint8"
        },
        {
          "internalType": "uint256",
          "name": "startTime",
          "type": "uint256"
        },
        {
          "internalType": "uint256",
          "name": "endTime",
          "type": "uint256"
        },
        {
          "internalType": "string",
          "name": "venue",
          "type": "string"
        },
        {
          "internalType": "bool",
          "name": "active",
          "type": "bool"
        }
      ],
      "stateMutability": "view",
      "type": "function"
    },
    {
      "inputs": [],
      "name": "owner",
      "outputs": [
        {
          "internalType": "address",
          "name": "",
          "type": "address"
        }
      ],
      "stateMutability": "view",
      "type": "function"
    },
    {
      "inputs": [
        {
          "internalType": "bytes32",
          "name": "",
          "type": "bytes32"
        }
      ],
      "name": "pools",
      "outputs": [
        {
          "internalType": "uint256",
          "name": "matchId",
          "type": "uint256"
        },
        {
          "internalType": "uint8",
          "name": "pillarId",
          "type": "uint8"
        },
        {
          "internalType": "uint256",
          "name": "totalStaked",
          "type": "uint256"
        },
        {
          "internalType": "uint256",
          "name": "stakeCount",
          "type": "uint256"
        }
      ],
      "stateMutability": "view",
      "type": "function"
    },
    {
      "inputs": [],
      "name": "renounceOwnership",
      "outputs": [],
      "stateMutability": "nonpayable",
      "type": "function"
    },
    {
      "inputs": [
        {
          "internalType": "bytes32",
          "name": "role",
          "type": "bytes32"
        },
        {
          "internalType": "address",
          "name": "callerConfirmation",
          "type": "address"
        }
      ],
      "name": "renounceRole",
      "outputs": [],
      "stateMutability": "nonpayable",
      "type": "function"
    },
    {
      "inputs": [
        {
          "internalType": "bytes32",
          "name": "role",
          "type": "bytes32"
        },
        {
          "internalType": "address",
          "name": "account",
          "type": "address"
        }
      ],
      "name": "revokeRole",
      "outputs": [],
      "stateMutability": "nonpayable",
      "type": "function"
    },
    {
      "inputs": [
        {
          "internalType": "uint256",
          "name": "matchId",
          "type": "uint256"
        },
        {
          "internalType": "uint8",
          "name": "pillarId",
          "type": "uint8"
        }
      ],
      "name": "stake",
      "outputs": [],
      "stateMutability": "payable",
      "type": "function"
    },
    {
      "inputs": [
        {
          "internalType": "bytes4",
          "name": "interfaceId",
          "type": "bytes4"
        }
      ],
      "name": "supportsInterface",
      "outputs": [
        {
          "internalType": "bool",
          "name": "",
          "type": "bool"
        }
      ],
      "stateMutability": "view",
      "type": "function"
    },
    {
      "inputs": [
        {
          "internalType": "uint256",
          "name": "matchId",
          "type": "uint256"
        },
        {
          "internalType": "bytes32",
          "name": "playerId",
          "type": "bytes32"
        }
      ],
      "name": "tipPlayer",
      "outputs": [],
      "stateMutability": "payable",
      "type": "function"
    },
    {
      "inputs": [
        {
          "internalType": "uint256",
          "name": "",
          "type": "uint256"
        }
      ],
      "name": "topContributors",
      "outputs": [
        {
          "internalType": "address",
          "name": "",
          "type": "address"
        }
      ],
      "stateMutability": "view",
      "type": "function"
    },
    {
      "inputs": [],
      "name": "totalStaked",
      "outputs": [
        {
          "internalType": "uint256",
          "name": "",
          "type": "uint256"
        }
      ],
      "stateMutability": "view",
      "type": "function"
    },
    {
      "inputs": [],
      "name": "totalTipped",
      "outputs": [
        {
          "internalType": "uint256",
          "name": "",
          "type": "uint256"
        }
      ],
      "stateMutability": "view",
      "type": "function"
    },
    {
      "inputs": [
        {
          "internalType": "address",
          "name": "newOwner",
          "type": "address"
        }
      ],
      "name": "transferOwnership",
      "outputs": [],
      "stateMutability": "nonpayable",
      "type": "function"
    },
    {
      "inputs": [
        {
          "internalType": "uint256",
          "name": "amount",
          "type": "uint256"
        }
      ],
      "name": "withdraw",
      "outputs": [],
      "stateMutability": "nonpayable",
      "type": "function"
    },
    {
      "stateMutability": "payable",
      "type": "receive"
    }
  ],
  "bytecode": "0x60806040523480156200001157600080fd5b50600160005533806200003e57604051631e4fbdf760e01b81526000600482015260240160405180910390fd5b620000498162000090565b5062000057600033620000e2565b50620000847fa49807205ce4d355092ef5a8a18f56e8913cf4a201fbe287825b095693c2177533620000e2565b50600060075562000179565b600280546001600160a01b038381166001600160a01b0319831681179093556040519116919082907f8be0079c531659141344cd1fd0a4f28419497f9722a3daafe3b4186f6b6457e090600090a35050565b60008281526001602090815260408083206001600160a01b038516845290915281205460ff166200016f5760008381526001602081815260408084206001600160a01b0387168086529252808420805460ff19169093179092559051339286917f2f8788117e7eff1d82e926ec794901d17c78024a50270940304540a733656f0d9190a450600162000173565b5060005b92915050565b611f2980620001896000396000f3fe6080604052600436106101d15760003560e01c8063715018a6116100f7578063a0d4cac411610095578063d547741f11610064578063d547741f14610626578063df9c49a314610646578063eedc2bd614610666578063f2fde38b1461068657600080fd5b8063a0d4cac414610551578063a217fddf14610593578063b5217bb4146105a8578063b814b7ed1461061057600080fd5b806375b238fc116100d157806375b238fc146104c7578063817b1cd2146104e95780638da5cb5b146104ff57806391d148541461053157600080fd5b8063715018a61461043a578063726dfd3b1461044f57806373d6a360146104a557600080fd5b80632f2ff15d1161016f57806344d465de1161013e57806344d465de146103b45780634768d4ef146103c75780634db74e01146103fa5780635a7942c21461041a57600080fd5b80632f2ff15d146102f057806336568abe146103105780633d092b3d1461033057806342e94c901461035d57600080fd5b806310087fb1116101ab57806310087fb11461026a57806313aab64c1461027f578063248a9ca31461029f5780632e1a7d4d146102d057600080fd5b806301fd1951146101dd57806301ffc9a71461020657806307e2cea51461023657600080fd5b366101d857005b600080fd5b3480156101e957600080fd5b506101f360075481565b6040519081526020015b60405180910390f35b34801561021257600080fd5b50610226610221366004611939565b6106a6565b60405190151581526020016101fd565b34801561024257600080fd5b506101f37f68e79a7bf1e0bc45d0a330c573bc367f9cf464fd326078812f301165fbda4ef181565b61027d610278366004611980565b6106dd565b005b34801561028b57600080fd5b5061027d61029a3660046119ac565b61095c565b3480156102ab57600080fd5b506101f36102ba3660046119ac565b6000908152600160208190526040909120015490565b3480156102dc57600080fd5b5061027d6102eb3660046119ac565b610a19565b3480156102fc57600080fd5b5061027d61030b3660046119dc565b610b09565b34801561031c57600080fd5b5061027d61032b3660046119dc565b610b35565b34801561033c57600080fd5b5061035061034b3660046119ac565b610b68565b6040516101fd9190611a45565b34801561036957600080fd5b50610399610378366004611ab2565b60056020526000908152604090208054600182015460029092015490919083565b604080519384526020840192909252908201526060016101fd565b61027d6103c2366004611acd565b610ca2565b3480156103d357600080fd5b506103e76103e23660046119ac565b610e25565b6040516101fd9796959493929190611aef565b34801561040657600080fd5b5061027d610415366004611bdf565b610ef5565b34801561042657600080fd5b5061027d610435366004611c47565b6110da565b34801561044657600080fd5b5061027d611135565b34801561045b57600080fd5b5061046f61046a366004611980565b611149565b6040516101fd91908151815260208083015160ff1690820152604080830151908201526060918201519181019190915260800190565b3480156104b157600080fd5b506104ba6111fc565b6040516101fd9190611c8e565b3480156104d357600080fd5b506101f3600080516020611ed483398151915281565b3480156104f557600080fd5b506101f360085481565b34801561050b57600080fd5b506002546001600160a01b03165b6040516001600160a01b0390911681526020016101fd565b34801561053d57600080fd5b5061022661054c3660046119dc565b6112e0565b34801561055d57600080fd5b5061057161056c366004611ab2565b61130b565b60408051825181526020808401519082015291810151908201526060016101fd565b34801561059f57600080fd5b506101f3600081565b3480156105b457600080fd5b506105ee6105c33660046119ac565b6004602052600090815260409020805460018201546002830154600390930154919260ff9091169184565b6040805194855260ff90931660208501529183015260608201526080016101fd565b34801561061c57600080fd5b506101f360095481565b34801561063257600080fd5b5061027d6106413660046119dc565b611371565b34801561065257600080fd5b5061027d610661366004611ab2565b611397565b34801561067257600080fd5b506105196106813660046119ac565b6113d9565b34801561069257600080fd5b5061027d6106a1366004611ab2565b611403565b60006001600160e01b03198216637965db0b60e01b14806106d757506301ffc9a760e01b6001600160e01b03198316145b92915050565b6106e5611441565b655af3107a40003410156107365760405162461bcd60e51b81526020600482015260136024820152725374616b652062656c6f77206d696e696d756d60681b60448201526064015b60405180910390fd5b600460ff82161061077a5760405162461bcd60e51b815260206004820152600e60248201526d24b73b30b634b2103834b63630b960911b604482015260640161072d565b60008281526003602052604090206005015460ff166107ab5760405162461bcd60e51b815260040161072d90611cdb565b600034116107fb5760405162461bcd60e51b815260206004820152601860248201527f43616e6e6f74207374616b65207a65726f20616d6f756e740000000000000000604482015260640161072d565b6000828260405160200161082692919091825260f81b6001600160f81b031916602082015260210190565b60408051808303601f1901815291815281516020928301206000818152600490935290822085815560018101805460ff191660ff8716179055600201805491935034929091610876908490611d1b565b9091555050600081815260046020526040812060030180549161089883611d2e565b909155505033600090815260056020526040812080543492906108bc908490611d1b565b90915550503360009081526005602052604081206001018054916108df83611d2e565b919050555034600860008282546108f69190611d1b565b9091555061090590503361146b565b336001600160a01b03168260ff16847f93fb94bab9e0e94e0250a6804eec94a8dd7645547d1ff30d09df9ad45ba8bf463460405161094591815260200190565b60405180910390a4506109586001600055565b5050565b600080516020611ed483398151915261097481611791565b60008281526003602052604090206005015460ff166109d55760405162461bcd60e51b815260206004820152601760248201527f4d6174636820616c72656164792066696e616c697a6564000000000000000000604482015260640161072d565b600082815260036020526040808220600501805460ff191690555183917fc76387b908b810345bf66696e4a9474ff182fddaf04c48eb0bfc5fe203fbef1b91a25050565b600080516020611ed4833981519152610a3181611791565b81471015610a785760405162461bcd60e51b8152602060048201526014602482015273496e73756666696369656e742062616c616e636560601b604482015260640161072d565b604051600090339084908381818185875af1925050503d8060008114610aba576040519150601f19603f3d011682016040523d82523d6000602084013e610abf565b606091505b5050905080610b045760405162461bcd60e51b815260206004820152601160248201527015da5d1a191c985dd85b0819985a5b1959607a1b604482015260640161072d565b505050565b60008281526001602081905260409091200154610b2581611791565b610b2f838361179b565b50505050565b6001600160a01b0381163314610b5e5760405163334bd91960e11b815260040160405180910390fd5b610b048282611814565b6040805160e08101825260008082526020820181905291810182905260608082018390526080820183905260a082015260c0810191909152600082815260036020818152604092839020835160e08101855281548152600182015460ff808216948301949094526101009004909216938201939093526002830154606082015290820154608082015260048201805491929160a084019190610c0990611d47565b80601f0160208091040260200160405190810160405280929190818152602001828054610c3590611d47565b8015610c825780601f10610c5757610100808354040283529160200191610c82565b820191906000526020600020905b815481529060010190602001808311610c6557829003601f168201915b50505091835250506005919091015460ff16151560209091015292915050565b610caa611441565b655af3107a4000341015610cf45760405162461bcd60e51b81526020600482015260116024820152705469702062656c6f77206d696e696d756d60781b604482015260640161072d565b60008281526003602052604090206005015460ff16610d255760405162461bcd60e51b815260040161072d90611cdb565b60003411610d6e5760405162461bcd60e51b815260206004820152601660248201527510d85b9b9bdd081d1a5c081e995c9bc8185b5bdd5b9d60521b604482015260640161072d565b3360009081526005602052604081208054349290610d8d908490611d1b565b9091555050336000908152600560205260408120600201805491610db083611d2e565b91905055503460096000828254610dc79190611d1b565b90915550610dd690503361146b565b336001600160a01b031681837febeea48bda9a5a9ef178ba010582317b1fbb485e3358837320a844321eec535134604051610e1391815260200190565b60405180910390a46109586001600055565b600360208190526000918252604090912080546001820154600283015493830154600484018054939560ff80851696610100909504169490939190610e6990611d47565b80601f0160208091040260200160405190810160405280929190818152602001828054610e9590611d47565b8015610ee25780601f10610eb757610100808354040283529160200191610ee2565b820191906000526020600020905b815481529060010190602001808311610ec557829003601f168201915b5050506005909301549192505060ff1687565b600080516020611ed4833981519152610f0d81611791565b8360ff168560ff1603610f625760405162461bcd60e51b815260206004820152601760248201527f5465616d73206d75737420626520646966666572656e74000000000000000000604482015260640161072d565b428311610fb15760405162461bcd60e51b815260206004820152601c60248201527f53746172742074696d65206d75737420626520696e2066757475726500000000604482015260640161072d565b6007805460009182610fc283611d2e565b9190505590506040518060e001604052808281526020018760ff1681526020018660ff16815260200185815260200185613840610fff9190611d1b565b81526020808201869052600160409283018190526000858152600380845290849020855181559285015191830180549486015160ff9081166101000261ffff199096169316929092179390931790556060830151600282015560808301519181019190915560a082015160048201906110789082611dcf565b5060c091909101516005909101805460ff191691151591909117905560405181907f245ee3522f7dcfc81536184f4bf99bc3cfabe7f64e44eeca9a390386b1b45ebf906110ca90899089908890611e8f565b60405180910390a2505050505050565b7f68e79a7bf1e0bc45d0a330c573bc367f9cf464fd326078812f301165fbda4ef161110481611791565b60008381526003602052604090206005015460ff16610b045760405162461bcd60e51b815260040161072d90611cdb565b61113d611881565b61114760006118ae565b565b611177604051806080016040528060008152602001600060ff16815260200160008152602001600081525090565b600083836040516020016111a292919091825260f81b6001600160f81b031916602082015260210190565b60408051808303601f19018152828252805160209182012060009081526004825282902060808401835280548452600181015460ff1691840191909152600281015491830191909152600301546060820152949350505050565b60606000600a6006805490501161121557600654611218565b600a5b905060008167ffffffffffffffff81111561123557611235611b3c565b60405190808252806020026020018201604052801561125e578160200160208202803683370190505b50905060005b828110156112d9576006818154811061127f5761127f611ebd565b9060005260206000200160009054906101000a90046001600160a01b03168282815181106112af576112af611ebd565b6001600160a01b0390921660209283029190910190910152806112d181611d2e565b915050611264565b5092915050565b60009182526001602090815260408084206001600160a01b0393909316845291905290205460ff1690565b61132f60405180606001604052806000815260200160008152602001600081525090565b506001600160a01b0316600090815260056020908152604091829020825160608101845281548152600182015492810192909252600201549181019190915290565b6000828152600160208190526040909120015461138d81611791565b610b2f8383611814565b600080516020611ed48339815191526113af81611791565b6109587f68e79a7bf1e0bc45d0a330c573bc367f9cf464fd326078812f301165fbda4ef183610b09565b600681815481106113e957600080fd5b6000918252602090912001546001600160a01b0316905081565b61140b611881565b6001600160a01b03811661143557604051631e4fbdf760e01b81526000600482015260240161072d565b61143e816118ae565b50565b60026000540361146457604051633ee5aeb560e01b815260040160405180910390fd5b6002600055565b6000805b6006548110156114cb57826001600160a01b03166006828154811061149657611496611ebd565b6000918252602090912001546001600160a01b0316036114b957600191506114cb565b806114c381611d2e565b91505061146f565b508061151d57600680546001810182556000919091527ff652222313e28459528d920b65115c16c04f3efc82aaedc97be59f3f377c0d3f0180546001600160a01b0319166001600160a01b0384161790555b60005b6006548110156116cd576000611537826001611d1b565b90505b6006548110156116ba57600560006006848154811061155b5761155b611ebd565b60009182526020808320909101546001600160a01b031683528201929092526040018120546006805491926005929091908590811061159c5761159c611ebd565b60009182526020808320909101546001600160a01b0316835282019290925260400190205411156116a8576000600683815481106115dc576115dc611ebd565b600091825260209091200154600680546001600160a01b039092169250908390811061160a5761160a611ebd565b600091825260209091200154600680546001600160a01b03909216918590811061163657611636611ebd565b9060005260206000200160006101000a8154816001600160a01b0302191690836001600160a01b03160217905550806006838154811061167857611678611ebd565b9060005260206000200160006101000a8154816001600160a01b0302191690836001600160a01b03160217905550505b806116b281611d2e565b91505061153a565b50806116c581611d2e565b915050611520565b50600160005b60065481101561173857836001600160a01b0316600682815481106116fa576116fa611ebd565b6000918252602090912001546001600160a01b0316036117265761171f816001611d1b565b9150611738565b8061173081611d2e565b9150506116d3565b506001600160a01b0383166000818152600560209081526040918290205482519081529081018490527f6b0b89e577b2f4ea1b42c8ed6a052ef901d1e024b7b2aba9df8db1ee96a0551e910160405180910390a2505050565b61143e8133611900565b60006117a783836112e0565b61180c5760008381526001602081815260408084206001600160a01b0387168086529252808420805460ff19169093179092559051339286917f2f8788117e7eff1d82e926ec794901d17c78024a50270940304540a733656f0d9190a45060016106d7565b5060006106d7565b600061182083836112e0565b1561180c5760008381526001602090815260408083206001600160a01b0386168085529252808320805460ff1916905551339286917ff6391f5c32d9c69d2a47ea670b442974b53935d1edc7fd64eb21e047a839171b9190a45060016106d7565b6002546001600160a01b031633146111475760405163118cdaa760e01b815233600482015260240161072d565b600280546001600160a01b038381166001600160a01b0319831681179093556040519116919082907f8be0079c531659141344cd1fd0a4f28419497f9722a3daafe3b4186f6b6457e090600090a35050565b61190a82826112e0565b6109585760405163e2517d3f60e01b81526001600160a01b03821660048201526024810183905260440161072d565b60006020828403121561194b57600080fd5b81356001600160e01b03198116811461196357600080fd5b9392505050565b803560ff8116811461197b57600080fd5b919050565b6000806040838503121561199357600080fd5b823591506119a36020840161196a565b90509250929050565b6000602082840312156119be57600080fd5b5035919050565b80356001600160a01b038116811461197b57600080fd5b600080604083850312156119ef57600080fd5b823591506119a3602084016119c5565b6000815180845260005b81811015611a2557602081850181015186830182015201611a09565b506000602082860101526020601f19601f83011685010191505092915050565b602081528151602082015260ff602083015116604082015260ff604083015116606082015260608201516080820152608082015160a0820152600060a083015160e060c0840152611a9a6101008401826119ff565b905060c0840151151560e08401528091505092915050565b600060208284031215611ac457600080fd5b611963826119c5565b60008060408385031215611ae057600080fd5b50508035926020909101359150565b87815260ff8716602082015260ff8616604082015284606082015283608082015260e060a08201526000611b2660e08301856119ff565b905082151560c083015298975050505050505050565b634e487b7160e01b600052604160045260246000fd5b600082601f830112611b6357600080fd5b813567ffffffffffffffff80821115611b7e57611b7e611b3c565b604051601f8301601f19908116603f01168101908282118183101715611ba657611ba6611b3c565b81604052838152866020858801011115611bbf57600080fd5b836020870160208301376000602085830101528094505050505092915050565b60008060008060808587031215611bf557600080fd5b611bfe8561196a565b9350611c0c6020860161196a565b925060408501359150606085013567ffffffffffffffff811115611c2f57600080fd5b611c3b87828801611b52565b91505092959194509250565b60008060408385031215611c5a57600080fd5b82359150602083013567ffffffffffffffff811115611c7857600080fd5b611c8485828601611b52565b9150509250929050565b6020808252825182820181905260009190848201906040850190845b81811015611ccf5783516001600160a01b031683529284019291840191600101611caa565b50909695505050505050565b60208082526010908201526f4d61746368206e6f742061637469766560801b604082015260600190565b634e487b7160e01b600052601160045260246000fd5b808201808211156106d7576106d7611d05565b600060018201611d4057611d40611d05565b5060010190565b600181811c90821680611d5b57607f821691505b602082108103611d7b57634e487b7160e01b600052602260045260246000fd5b50919050565b601f821115610b0457600081815260208120601f850160051c81016020861015611da85750805b601f850160051c820191505b81811015611dc757828155600101611db4565b505050505050565b815167ffffffffffffffff811115611de957611de9611b3c565b611dfd81611df78454611d47565b84611d81565b602080601f831160018114611e325760008415611e1a5750858301515b600019600386901b1c1916600185901b178555611dc7565b600085815260208120601f198616915b82811015611e6157888601518255948401946001909101908401611e42565b5085821015611e7f5787850151600019600388901b60f8161c191681555b5050505050600190811b01905550565b60ff8416815260ff83166020820152606060408201526000611eb460608301846119ff565b95945050505050565b634e487b7160e01b600052603260045260246000fdfea49807205ce4d355092ef5a8a18f56e8913cf4a201fbe287825b095693c21775a26469706673582212208661c5e2424fdc6c9d7cfa34c0e43b01da3151d2b9732039b4bddddf38c6d19864736f6c63430008140033",
  "linkReferences": {},
  "deployedLinkReferences": {}
}